{
  "_format": "hh-sol-artifact-1",
  "contractName": "Forwarder",
  "sourceName": "contracts/Forwarder.sol",
  "abi": [
    {
      "inputs": [
        {
          "internalType": "string",
          "name": "name_",
          "type": "string"
        },
        {
          "internalType": "string",
          "name": "version_",
          "type": "string"
        }
      ],
      "stateMutability": "nonpayable",
      "type": "constructor"
    },
    {
      "inputs": [
        {
          "components": [
            {
              "internalType": "address",
              "name": "from",
              "type": "address"
            },
            {
              "internalType": "address",
              "name": "to",
              "type": "address"
            },
            {
              "internalType": "uint256",
              "name": "value",
              "type": "uint256"
            },
            {
              "internalType": "uint256",
              "name": "gas",
              "type": "uint256"
            },
            {
              "internalType": "uint256",
              "name": "nonce",
              "type": "uint256"
            },
            {
              "internalType": "bytes",
              "name": "data",
              "type": "bytes"
            }
          ],
          "internalType": "struct Forwarder.ForwardRequest",
          "name": "req",
          "type": "tuple"
        },
        {
          "internalType": "bytes",
          "name": "signature",
          "type": "bytes"
        }
      ],
      "name": "execute",
      "outputs": [
        {
          "internalType": "bool",
          "name": "",
          "type": "bool"
        },
        {
          "internalType": "bytes",
          "name": "",
          "type": "bytes"
        }
      ],
      "stateMutability": "payable",
      "type": "function"
    },
    {
      "inputs": [
        {
          "internalType": "address",
          "name": "from",
          "type": "address"
        }
      ],
      "name": "getNonce",
      "outputs": [
        {
          "internalType": "uint256",
          "name": "",
          "type": "uint256"
        }
      ],
      "stateMutability": "view",
      "type": "function"
    },
    {
      "inputs": [],
      "name": "name",
      "outputs": [
        {
          "internalType": "string",
          "name": "",
          "type": "string"
        }
      ],
      "stateMutability": "view",
      "type": "function"
    },
    {
      "inputs": [
        {
          "components": [
            {
              "internalType": "address",
              "name": "from",
              "type": "address"
            },
            {
              "internalType": "address",
              "name": "to",
              "type": "address"
            },
            {
              "internalType": "uint256",
              "name": "value",
              "type": "uint256"
            },
            {
              "internalType": "uint256",
              "name": "gas",
              "type": "uint256"
            },
            {
              "internalType": "uint256",
              "name": "nonce",
              "type": "uint256"
            },
            {
              "internalType": "bytes",
              "name": "data",
              "type": "bytes"
            }
          ],
          "internalType": "struct Forwarder.ForwardRequest",
          "name": "req",
          "type": "tuple"
        },
        {
          "internalType": "bytes",
          "name": "signature",
          "type": "bytes"
        }
      ],
      "name": "verify",
      "outputs": [
        {
          "internalType": "bool",
          "name": "",
          "type": "bool"
        }
      ],
      "stateMutability": "view",
      "type": "function"
    },
    {
      "inputs": [],
      "name": "version",
      "outputs": [
        {
          "internalType": "string",
          "name": "",
          "type": "string"
        }
      ],
      "stateMutability": "view",
      "type": "function"
    }
  ],
  "bytecode": "0x6101406040523480156200001257600080fd5b506040516200142e3803806200142e833981016040819052620000359162000265565b8151602080840191822083518483012060e08290526101008190524660a0818152604080517f8b73c3c69bb8fe3d512ecc4cf759cc79239f7b179b0ffacaa9a75d522b39400f818801819052818301969096526060810194909452608080850193909352308483018190528151808603909301835260c094850190915281519190950120905291909152610120528251620000d391600091620000f2565b508051620000e9906001906020840190620000f2565b5050506200030c565b8280546200010090620002cf565b90600052602060002090601f0160209004810192826200012457600085556200016f565b82601f106200013f57805160ff19168380011785556200016f565b828001600101855582156200016f579182015b828111156200016f57825182559160200191906001019062000152565b506200017d92915062000181565b5090565b5b808211156200017d576000815560010162000182565b634e487b7160e01b600052604160045260246000fd5b600082601f830112620001c057600080fd5b81516001600160401b0380821115620001dd57620001dd62000198565b604051601f8301601f19908116603f0116810190828211818310171562000208576200020862000198565b816040528381526020925086838588010111156200022557600080fd5b600091505b838210156200024957858201830151818301840152908201906200022a565b838211156200025b5760008385830101525b9695505050505050565b600080604083850312156200027957600080fd5b82516001600160401b03808211156200029157600080fd5b6200029f86838701620001ae565b93506020850151915080821115620002b657600080fd5b50620002c585828601620001ae565b9150509250929050565b600181811c90821680620002e457607f821691505b602082108114156200030657634e487b7160e01b600052602260045260246000fd5b50919050565b60805160a05160c05160e05161010051610120516110d26200035c600039600061080901526000610858015260006108330152600061078c015260006107b6015260006107e001526110d26000f3fe60806040526004361061005a5760003560e01c806347153f821161004357806347153f82146100db57806354fd4d50146100fc578063bf5d3bdb1461011157600080fd5b806306fdde031461005f5780632d0335ab1461008a575b600080fd5b34801561006b57600080fd5b50610074610141565b6040516100819190610da9565b60405180910390f35b34801561009657600080fd5b506100cd6100a5366004610dbc565b73ffffffffffffffffffffffffffffffffffffffff1660009081526002602052604090205490565b604051908152602001610081565b6100ee6100e9366004610df2565b6101cf565b604051610081929190610e91565b34801561010857600080fd5b5061007461034c565b34801561011d57600080fd5b5061013161012c366004610df2565b610359565b6040519015158152602001610081565b6000805461014e90610eac565b80601f016020809104026020016040519081016040528092919081815260200182805461017a90610eac565b80156101c75780601f1061019c576101008083540402835291602001916101c7565b820191906000526020600020905b8154815290600101906020018083116101aa57829003601f168201915b505050505081565b600060606101de858585610359565b61026f576040517f08c379a000000000000000000000000000000000000000000000000000000000815260206004820152603260248201527f4d696e696d616c466f727761726465723a207369676e617475726520646f657360448201527f206e6f74206d617463682072657175657374000000000000000000000000000060648201526084015b60405180910390fd5b61027e60808601356001610f00565b6002600061028f6020890189610dbc565b73ffffffffffffffffffffffffffffffffffffffff1673ffffffffffffffffffffffffffffffffffffffff1681526020019081526020016000208190555060006103268660200160208101906102e59190610dbc565b6102f260a0890189610f3f565b6102ff60208b018b610dbc565b60405160200161031193929190610fa4565b6040516020818303038152906040523461051b565b9050610337603f6060880135610fdd565b5a1161033f57fe5b6001969095509350505050565b6001805461014e90610eac565b60008061047984848080601f01602080910402602001604051908101604052809392919081815260200183838082843760009201919091525061047392507fdd8f4b70b0f4393e889bd39128a30628a78b61816a9eb8199759e7a349657e4891506103c9905060208a018a610dbc565b6103d960408b0160208c01610dbc565b60408b013560608c013560808d01356103f560a08f018f610f3f565b604051610403929190611018565b60408051918290038220602083019890985273ffffffffffffffffffffffffffffffffffffffff96871690820152949093166060850152608084019190915260a083015260c082015260e08101919091526101000160405160208183030381529060405280519060200120610549565b906105b8565b90506080850135600260006104916020890189610dbc565b73ffffffffffffffffffffffffffffffffffffffff1673ffffffffffffffffffffffffffffffffffffffff1681526020019081526020016000205414801561051057506104e16020860186610dbc565b73ffffffffffffffffffffffffffffffffffffffff168173ffffffffffffffffffffffffffffffffffffffff16145b9150505b9392505050565b6060610541848484604051806060016040528060298152602001611074602991396105dc565b949350505050565b60006105b2610556610772565b836040517f19010000000000000000000000000000000000000000000000000000000000006020820152602281018390526042810182905260009060620160405160208183030381529060405280519060200120905092915050565b92915050565b60008060006105c785856108a6565b915091506105d481610916565b509392505050565b60608247101561066e576040517f08c379a000000000000000000000000000000000000000000000000000000000815260206004820152602660248201527f416464726573733a20696e73756666696369656e742062616c616e636520666f60448201527f722063616c6c00000000000000000000000000000000000000000000000000006064820152608401610266565b73ffffffffffffffffffffffffffffffffffffffff85163b6106ec576040517f08c379a000000000000000000000000000000000000000000000000000000000815260206004820152601d60248201527f416464726573733a2063616c6c20746f206e6f6e2d636f6e74726163740000006044820152606401610266565b6000808673ffffffffffffffffffffffffffffffffffffffff1685876040516107159190611028565b60006040518083038185875af1925050503d8060008114610752576040519150601f19603f3d011682016040523d82523d6000602084013e610757565b606091505b5091509150610767828286610b72565b979650505050505050565b60003073ffffffffffffffffffffffffffffffffffffffff7f0000000000000000000000000000000000000000000000000000000000000000161480156107d857507f000000000000000000000000000000000000000000000000000000000000000046145b1561080257507f000000000000000000000000000000000000000000000000000000000000000090565b50604080517f00000000000000000000000000000000000000000000000000000000000000006020808301919091527f0000000000000000000000000000000000000000000000000000000000000000828401527f000000000000000000000000000000000000000000000000000000000000000060608301524660808301523060a0808401919091528351808403909101815260c0909201909252805191012090565b6000808251604114156108dd5760208301516040840151606085015160001a6108d187828585610bc5565b9450945050505061090f565b82516040141561090757602083015160408401516108fc868383610cdd565b93509350505061090f565b506000905060025b9250929050565b600081600481111561092a5761092a611044565b14156109335750565b600181600481111561094757610947611044565b14156109af576040517f08c379a000000000000000000000000000000000000000000000000000000000815260206004820152601860248201527f45434453413a20696e76616c6964207369676e617475726500000000000000006044820152606401610266565b60028160048111156109c3576109c3611044565b1415610a2b576040517f08c379a000000000000000000000000000000000000000000000000000000000815260206004820152601f60248201527f45434453413a20696e76616c6964207369676e6174757265206c656e677468006044820152606401610266565b6003816004811115610a3f57610a3f611044565b1415610acd576040517f08c379a000000000000000000000000000000000000000000000000000000000815260206004820152602260248201527f45434453413a20696e76616c6964207369676e6174757265202773272076616c60448201527f75650000000000000000000000000000000000000000000000000000000000006064820152608401610266565b6004816004811115610ae157610ae1611044565b1415610b6f576040517f08c379a000000000000000000000000000000000000000000000000000000000815260206004820152602260248201527f45434453413a20696e76616c6964207369676e6174757265202776272076616c60448201527f75650000000000000000000000000000000000000000000000000000000000006064820152608401610266565b50565b60608315610b81575081610514565b825115610b915782518084602001fd5b816040517f08c379a00000000000000000000000000000000000000000000000000000000081526004016102669190610da9565b6000807f7fffffffffffffffffffffffffffffff5d576e7357a4501ddfe92f46681b20a0831115610bfc5750600090506003610cd4565b8460ff16601b14158015610c1457508460ff16601c14155b15610c255750600090506004610cd4565b6040805160008082526020820180845289905260ff881692820192909252606081018690526080810185905260019060a0016020604051602081039080840390855afa158015610c79573d6000803e3d6000fd5b50506040517fffffffffffffffffffffffffffffffffffffffffffffffffffffffffffffffe0015191505073ffffffffffffffffffffffffffffffffffffffff8116610ccd57600060019250925050610cd4565b9150600090505b94509492505050565b6000807f7fffffffffffffffffffffffffffffffffffffffffffffffffffffffffffffff831681610d1360ff86901c601b610f00565b9050610d2187828885610bc5565b935093505050935093915050565b60005b83811015610d4a578181015183820152602001610d32565b83811115610d59576000848401525b50505050565b60008151808452610d77816020860160208601610d2f565b601f017fffffffffffffffffffffffffffffffffffffffffffffffffffffffffffffffe0169290920160200192915050565b6020815260006105146020830184610d5f565b600060208284031215610dce57600080fd5b813573ffffffffffffffffffffffffffffffffffffffff8116811461051457600080fd5b600080600060408486031215610e0757600080fd5b833567ffffffffffffffff80821115610e1f57600080fd5b9085019060c08288031215610e3357600080fd5b90935060208501359080821115610e4957600080fd5b818601915086601f830112610e5d57600080fd5b813581811115610e6c57600080fd5b876020828501011115610e7e57600080fd5b6020830194508093505050509250925092565b82151581526040602082015260006105416040830184610d5f565b600181811c90821680610ec057607f821691505b60208210811415610efa577f4e487b7100000000000000000000000000000000000000000000000000000000600052602260045260246000fd5b50919050565b60008219821115610f3a577f4e487b7100000000000000000000000000000000000000000000000000000000600052601160045260246000fd5b500190565b60008083357fffffffffffffffffffffffffffffffffffffffffffffffffffffffffffffffe1843603018112610f7457600080fd5b83018035915067ffffffffffffffff821115610f8f57600080fd5b60200191503681900382131561090f57600080fd5b8284823760609190911b7fffffffffffffffffffffffffffffffffffffffff000000000000000000000000169101908152601401919050565b600082611013577f4e487b7100000000000000000000000000000000000000000000000000000000600052601260045260246000fd5b500490565b8183823760009101908152919050565b6000825161103a818460208701610d2f565b9190910192915050565b7f4e487b7100000000000000000000000000000000000000000000000000000000600052602160045260246000fdfe416464726573733a206c6f772d6c6576656c2063616c6c20776974682076616c7565206661696c6564a2646970667358221220ce367c1c7c3ea5f6af6df54d26eb9e4f4669ce21bdc49192457966ee18ce0f2664736f6c634300080c0033",
  "linkReferences": {},
  "deployedLinkReferences": {}
}