{
  "_format": "hh-sol-artifact-1",
  "contractName": "MockERC721",
  "sourceName": "contracts/mocks/MockERC721/MockERC721.sol",
  "abi": [
    {
      "inputs": [
        {
          "internalType": "string",
          "name": "_name",
          "type": "string"
        },
        {
          "internalType": "string",
          "name": "_symbol",
          "type": "string"
        },
        {
          "internalType": "string",
          "name": "_contractURI",
          "type": "string"
        },
        {
          "internalType": "string",
          "name": "baseURI_",
          "type": "string"
        },
        {
          "internalType": "uint256",
          "name": "_maxSupply",
          "type": "uint256"
        },
        {
          "internalType": "uint256",
          "name": "floorPrice_",
          "type": "uint256"
        }
      ],
      "stateMutability": "nonpayable",
      "type": "constructor"
    },
    {
      "anonymous": false,
      "inputs": [
        {
          "indexed": true,
          "internalType": "address",
          "name": "owner",
          "type": "address"
        },
        {
          "indexed": true,
          "internalType": "address",
          "name": "approved",
          "type": "address"
        },
        {
          "indexed": true,
          "internalType": "uint256",
          "name": "tokenId",
          "type": "uint256"
        }
      ],
      "name": "Approval",
      "type": "event"
    },
    {
      "anonymous": false,
      "inputs": [
        {
          "indexed": true,
          "internalType": "address",
          "name": "owner",
          "type": "address"
        },
        {
          "indexed": true,
          "internalType": "address",
          "name": "operator",
          "type": "address"
        },
        {
          "indexed": false,
          "internalType": "bool",
          "name": "approved",
          "type": "bool"
        }
      ],
      "name": "ApprovalForAll",
      "type": "event"
    },
    {
      "anonymous": false,
      "inputs": [
        {
          "indexed": false,
          "internalType": "address",
          "name": "userAddress",
          "type": "address"
        },
        {
          "indexed": false,
          "internalType": "address payable",
          "name": "relayerAddress",
          "type": "address"
        },
        {
          "indexed": false,
          "internalType": "bytes",
          "name": "functionSignature",
          "type": "bytes"
        }
      ],
      "name": "MetaTransactionExecuted",
      "type": "event"
    },
    {
      "anonymous": false,
      "inputs": [
        {
          "indexed": true,
          "internalType": "address",
          "name": "previousOwner",
          "type": "address"
        },
        {
          "indexed": true,
          "internalType": "address",
          "name": "newOwner",
          "type": "address"
        }
      ],
      "name": "OwnershipTransferred",
      "type": "event"
    },
    {
      "anonymous": false,
      "inputs": [
        {
          "indexed": true,
          "internalType": "address",
          "name": "from",
          "type": "address"
        },
        {
          "indexed": true,
          "internalType": "address",
          "name": "to",
          "type": "address"
        },
        {
          "indexed": true,
          "internalType": "uint256",
          "name": "tokenId",
          "type": "uint256"
        }
      ],
      "name": "Transfer",
      "type": "event"
    },
    {
      "inputs": [],
      "name": "ERC712_VERSION",
      "outputs": [
        {
          "internalType": "string",
          "name": "",
          "type": "string"
        }
      ],
      "stateMutability": "view",
      "type": "function"
    },
    {
      "inputs": [
        {
          "internalType": "address",
          "name": "to",
          "type": "address"
        },
        {
          "internalType": "uint256",
          "name": "tokenId",
          "type": "uint256"
        }
      ],
      "name": "approve",
      "outputs": [],
      "stateMutability": "nonpayable",
      "type": "function"
    },
    {
      "inputs": [
        {
          "internalType": "address",
          "name": "owner",
          "type": "address"
        }
      ],
      "name": "balanceOf",
      "outputs": [
        {
          "internalType": "uint256",
          "name": "",
          "type": "uint256"
        }
      ],
      "stateMutability": "view",
      "type": "function"
    },
    {
      "inputs": [],
      "name": "contractURI",
      "outputs": [
        {
          "internalType": "string",
          "name": "",
          "type": "string"
        }
      ],
      "stateMutability": "view",
      "type": "function"
    },
    {
      "inputs": [
        {
          "internalType": "address",
          "name": "userAddress",
          "type": "address"
        },
        {
          "internalType": "bytes",
          "name": "functionSignature",
          "type": "bytes"
        },
        {
          "internalType": "bytes32",
          "name": "sigR",
          "type": "bytes32"
        },
        {
          "internalType": "bytes32",
          "name": "sigS",
          "type": "bytes32"
        },
        {
          "internalType": "uint8",
          "name": "sigV",
          "type": "uint8"
        }
      ],
      "name": "executeMetaTransaction",
      "outputs": [
        {
          "internalType": "bytes",
          "name": "",
          "type": "bytes"
        }
      ],
      "stateMutability": "payable",
      "type": "function"
    },
    {
      "inputs": [
        {
          "internalType": "address",
          "name": "userAddress",
          "type": "address"
        },
        {
          "internalType": "bytes",
          "name": "functionSignature",
          "type": "bytes"
        },
        {
          "internalType": "bytes32",
          "name": "sigR",
          "type": "bytes32"
        },
        {
          "internalType": "bytes32",
          "name": "sigS",
          "type": "bytes32"
        },
        {
          "internalType": "uint8",
          "name": "sigV",
          "type": "uint8"
        },
        {
          "internalType": "bytes",
          "name": "callData",
          "type": "bytes"
        }
      ],
      "name": "executeMetaTransaction",
      "outputs": [
        {
          "internalType": "bytes",
          "name": "",
          "type": "bytes"
        }
      ],
      "stateMutability": "payable",
      "type": "function"
    },
    {
      "inputs": [
        {
          "internalType": "uint256",
          "name": "tokenId",
          "type": "uint256"
        }
      ],
      "name": "getApproved",
      "outputs": [
        {
          "internalType": "address",
          "name": "",
          "type": "address"
        }
      ],
      "stateMutability": "view",
      "type": "function"
    },
    {
      "inputs": [],
      "name": "getChainId",
      "outputs": [
        {
          "internalType": "uint256",
          "name": "",
          "type": "uint256"
        }
      ],
      "stateMutability": "view",
      "type": "function"
    },
    {
      "inputs": [],
      "name": "getDomainSeperator",
      "outputs": [
        {
          "internalType": "bytes32",
          "name": "",
          "type": "bytes32"
        }
      ],
      "stateMutability": "view",
      "type": "function"
    },
    {
      "inputs": [
        {
          "internalType": "address",
          "name": "user",
          "type": "address"
        }
      ],
      "name": "getNonce",
      "outputs": [
        {
          "internalType": "uint256",
          "name": "nonce",
          "type": "uint256"
        }
      ],
      "stateMutability": "view",
      "type": "function"
    },
    {
      "inputs": [
        {
          "internalType": "address",
          "name": "_owner",
          "type": "address"
        },
        {
          "internalType": "address",
          "name": "_operator",
          "type": "address"
        }
      ],
      "name": "isApprovedForAll",
      "outputs": [
        {
          "internalType": "bool",
          "name": "isOperator",
          "type": "bool"
        }
      ],
      "stateMutability": "view",
      "type": "function"
    },
    {
      "inputs": [
        {
          "internalType": "address",
          "name": "_to",
          "type": "address"
        },
        {
          "internalType": "string",
          "name": "_tokenURI",
          "type": "string"
        }
      ],
      "name": "mint",
      "outputs": [
        {
          "internalType": "uint256",
          "name": "",
          "type": "uint256"
        }
      ],
      "stateMutability": "payable",
      "type": "function"
    },
    {
      "inputs": [],
      "name": "name",
      "outputs": [
        {
          "internalType": "string",
          "name": "",
          "type": "string"
        }
      ],
      "stateMutability": "view",
      "type": "function"
    },
    {
      "inputs": [],
      "name": "owner",
      "outputs": [
        {
          "internalType": "address",
          "name": "",
          "type": "address"
        }
      ],
      "stateMutability": "view",
      "type": "function"
    },
    {
      "inputs": [
        {
          "internalType": "uint256",
          "name": "tokenId",
          "type": "uint256"
        }
      ],
      "name": "ownerOf",
      "outputs": [
        {
          "internalType": "address",
          "name": "",
          "type": "address"
        }
      ],
      "stateMutability": "view",
      "type": "function"
    },
    {
      "inputs": [],
      "name": "renounceOwnership",
      "outputs": [],
      "stateMutability": "nonpayable",
      "type": "function"
    },
    {
      "inputs": [
        {
          "internalType": "address",
          "name": "from",
          "type": "address"
        },
        {
          "internalType": "address",
          "name": "to",
          "type": "address"
        },
        {
          "internalType": "uint256",
          "name": "tokenId",
          "type": "uint256"
        }
      ],
      "name": "safeTransferFrom",
      "outputs": [],
      "stateMutability": "nonpayable",
      "type": "function"
    },
    {
      "inputs": [
        {
          "internalType": "address",
          "name": "from",
          "type": "address"
        },
        {
          "internalType": "address",
          "name": "to",
          "type": "address"
        },
        {
          "internalType": "uint256",
          "name": "tokenId",
          "type": "uint256"
        },
        {
          "internalType": "bytes",
          "name": "_data",
          "type": "bytes"
        }
      ],
      "name": "safeTransferFrom",
      "outputs": [],
      "stateMutability": "nonpayable",
      "type": "function"
    },
    {
      "inputs": [
        {
          "internalType": "address",
          "name": "operator",
          "type": "address"
        },
        {
          "internalType": "bool",
          "name": "approved",
          "type": "bool"
        }
      ],
      "name": "setApprovalForAll",
      "outputs": [],
      "stateMutability": "nonpayable",
      "type": "function"
    },
    {
      "inputs": [
        {
          "internalType": "bytes4",
          "name": "interfaceId",
          "type": "bytes4"
        }
      ],
      "name": "supportsInterface",
      "outputs": [
        {
          "internalType": "bool",
          "name": "",
          "type": "bool"
        }
      ],
      "stateMutability": "view",
      "type": "function"
    },
    {
      "inputs": [],
      "name": "symbol",
      "outputs": [
        {
          "internalType": "string",
          "name": "",
          "type": "string"
        }
      ],
      "stateMutability": "view",
      "type": "function"
    },
    {
      "inputs": [
        {
          "internalType": "uint256",
          "name": "index",
          "type": "uint256"
        }
      ],
      "name": "tokenByIndex",
      "outputs": [
        {
          "internalType": "uint256",
          "name": "",
          "type": "uint256"
        }
      ],
      "stateMutability": "view",
      "type": "function"
    },
    {
      "inputs": [
        {
          "internalType": "address",
          "name": "owner",
          "type": "address"
        },
        {
          "internalType": "uint256",
          "name": "index",
          "type": "uint256"
        }
      ],
      "name": "tokenOfOwnerByIndex",
      "outputs": [
        {
          "internalType": "uint256",
          "name": "",
          "type": "uint256"
        }
      ],
      "stateMutability": "view",
      "type": "function"
    },
    {
      "inputs": [
        {
          "internalType": "uint256",
          "name": "tokenId",
          "type": "uint256"
        }
      ],
      "name": "tokenURI",
      "outputs": [
        {
          "internalType": "string",
          "name": "",
          "type": "string"
        }
      ],
      "stateMutability": "view",
      "type": "function"
    },
    {
      "inputs": [],
      "name": "totalSupply",
      "outputs": [
        {
          "internalType": "uint256",
          "name": "",
          "type": "uint256"
        }
      ],
      "stateMutability": "view",
      "type": "function"
    },
    {
      "inputs": [
        {
          "internalType": "address",
          "name": "from",
          "type": "address"
        },
        {
          "internalType": "address",
          "name": "to",
          "type": "address"
        },
        {
          "internalType": "uint256",
          "name": "tokenId",
          "type": "uint256"
        }
      ],
      "name": "transferFrom",
      "outputs": [],
      "stateMutability": "nonpayable",
      "type": "function"
    },
    {
      "inputs": [
        {
          "internalType": "address",
          "name": "newOwner",
          "type": "address"
        }
      ],
      "name": "transferOwnership",
      "outputs": [],
      "stateMutability": "nonpayable",
      "type": "function"
    }
  ],
  "bytecode": "0x6080604052600b805460ff191690553480156200001b57600080fd5b50604051620039fe380380620039fe8339810160408190526200003e916200041e565b858686816000908051906020019062000059929190620002ab565b5080516200006f906001906020840190620002ab565b5050506200008381620000d860201b60201c565b5062000098620000926200013c565b62000158565b8351620000ad906012906020870190620002ab565b508251620000c3906013906020860190620002ab565b50601091909155601155506200052692505050565b600b5460ff1615620001215760405162461bcd60e51b815260206004820152600e60248201526d185b1c9958591e481a5b9a5d195960921b604482015260640160405180910390fd5b6200012c81620001aa565b50600b805460ff19166001179055565b6000620001536200024c60201b6200135b1760201c565b905090565b600e80546001600160a01b038381166001600160a01b0319831681179093556040519116919082907f8be0079c531659141344cd1fd0a4f28419497f9722a3daafe3b4186f6b6457e090600090a35050565b6040518060800160405280604f8152602001620039af604f9139805160209182012082519282019290922060408051808201825260018152603160f81b90840152805180840194909452838101919091527fc89efdaa54c0f20c7adf612882df0950f5a951637e0307cdcb4c672f298b8bc660608401523060808401524660a0808501919091528151808503909101815260c090930190528151910120600c55565b600033301415620002a557600080368080601f0160208091040260200160405190810160405280939291908181526020018383808284376000920191909152505050503601516001600160a01b03169150620002a89050565b50335b90565b828054620002b990620004e9565b90600052602060002090601f016020900481019282620002dd576000855562000328565b82601f10620002f857805160ff191683800117855562000328565b8280016001018555821562000328579182015b82811115620003285782518255916020019190600101906200030b565b50620003369291506200033a565b5090565b5b808211156200033657600081556001016200033b565b634e487b7160e01b600052604160045260246000fd5b600082601f8301126200037957600080fd5b81516001600160401b038082111562000396576200039662000351565b604051601f8301601f19908116603f01168101908282118183101715620003c157620003c162000351565b81604052838152602092508683858801011115620003de57600080fd5b600091505b83821015620004025785820183015181830184015290820190620003e3565b83821115620004145760008385830101525b9695505050505050565b60008060008060008060c087890312156200043857600080fd5b86516001600160401b03808211156200045057600080fd5b6200045e8a838b0162000367565b975060208901519150808211156200047557600080fd5b620004838a838b0162000367565b965060408901519150808211156200049a57600080fd5b620004a88a838b0162000367565b95506060890151915080821115620004bf57600080fd5b50620004ce89828a0162000367565b9350506080870151915060a087015190509295509295509295565b600181811c90821680620004fe57607f821691505b602082108114156200052057634e487b7160e01b600052602260045260246000fd5b50919050565b61347980620005366000396000f3fe6080604052600436106101ac5760003560e01c80634f6ccce7116100ec578063a49b6b521161008a578063d0def52111610064578063d0def521146104dd578063e8a3d485146104f0578063e985e9c514610505578063f2fde38b1461052557600080fd5b8063a49b6b521461048a578063b88d4fde1461049d578063c87b56dd146104bd57600080fd5b8063715018a6116100c6578063715018a6146104155780638da5cb5b1461042a57806395d89b4114610455578063a22cb4651461046a57600080fd5b80634f6ccce7146103b55780636352211e146103d557806370a08231146103f557600080fd5b806318160ddd116101595780632d0335ab116101335780632d0335ab1461031f5780632f745c59146103625780633408e4701461038257806342842e0e1461039557600080fd5b806318160ddd146102cb57806320379ee5146102ea57806323b872dd146102ff57600080fd5b8063095ea7b31161018a578063095ea7b31461024d5780630c53c51c1461026f5780630f7e59701461028257600080fd5b806301ffc9a7146101b157806306fdde03146101e6578063081812fc14610208575b600080fd5b3480156101bd57600080fd5b506101d16101cc366004612c22565b610545565b60405190151581526020015b60405180910390f35b3480156101f257600080fd5b506101fb610556565b6040516101dd9190612cb5565b34801561021457600080fd5b50610228610223366004612cc8565b6105e8565b60405173ffffffffffffffffffffffffffffffffffffffff90911681526020016101dd565b34801561025957600080fd5b5061026d610268366004612d0a565b6106c7565b005b6101fb61027d366004612e28565b610873565b34801561028e57600080fd5b506101fb6040518060400160405280600181526020017f310000000000000000000000000000000000000000000000000000000000000081525081565b3480156102d757600080fd5b506009545b6040519081526020016101dd565b3480156102f657600080fd5b50600c546102dc565b34801561030b57600080fd5b5061026d61031a366004612e9a565b61089c565b34801561032b57600080fd5b506102dc61033a366004612ed6565b73ffffffffffffffffffffffffffffffffffffffff166000908152600d602052604090205490565b34801561036e57600080fd5b506102dc61037d366004612d0a565b610944565b34801561038e57600080fd5b50466102dc565b3480156103a157600080fd5b5061026d6103b0366004612e9a565b610a13565b3480156103c157600080fd5b506102dc6103d0366004612cc8565b610a2e565b3480156103e157600080fd5b506102286103f0366004612cc8565b610aec565b34801561040157600080fd5b506102dc610410366004612ed6565b610b9e565b34801561042157600080fd5b5061026d610c6c565b34801561043657600080fd5b50600e5473ffffffffffffffffffffffffffffffffffffffff16610228565b34801561046157600080fd5b506101fb610d32565b34801561047657600080fd5b5061026d610485366004612ef1565b610d41565b6101fb610498366004612f2d565b610d57565b3480156104a957600080fd5b5061026d6104b8366004612fc4565b610efe565b3480156104c957600080fd5b506101fb6104d8366004612cc8565b610fad565b6102dc6104eb36600461302c565b610fb8565b3480156104fc57600080fd5b506101fb61116c565b34801561051157600080fd5b506101d161052036600461308e565b61117b565b34801561053157600080fd5b5061026d610540366004612ed6565b6111f2565b6000610550826113c5565b92915050565b606060008054610565906130c1565b80601f0160208091040260200160405190810160405280929190818152602001828054610591906130c1565b80156105de5780601f106105b3576101008083540402835291602001916105de565b820191906000526020600020905b8154815290600101906020018083116105c157829003601f168201915b5050505050905090565b60008181526002602052604081205473ffffffffffffffffffffffffffffffffffffffff1661069e576040517f08c379a000000000000000000000000000000000000000000000000000000000815260206004820152602c60248201527f4552433732313a20617070726f76656420717565727920666f72206e6f6e657860448201527f697374656e7420746f6b656e000000000000000000000000000000000000000060648201526084015b60405180910390fd5b5060009081526004602052604090205473ffffffffffffffffffffffffffffffffffffffff1690565b60006106d282610aec565b90508073ffffffffffffffffffffffffffffffffffffffff168373ffffffffffffffffffffffffffffffffffffffff161415610790576040517f08c379a000000000000000000000000000000000000000000000000000000000815260206004820152602160248201527f4552433732313a20617070726f76616c20746f2063757272656e74206f776e6560448201527f72000000000000000000000000000000000000000000000000000000000000006064820152608401610695565b8073ffffffffffffffffffffffffffffffffffffffff166107af61141b565b73ffffffffffffffffffffffffffffffffffffffff1614806107d857506107d88161052061141b565b610864576040517f08c379a000000000000000000000000000000000000000000000000000000000815260206004820152603860248201527f4552433732313a20617070726f76652063616c6c6572206973206e6f74206f7760448201527f6e6572206e6f7220617070726f76656420666f7220616c6c00000000000000006064820152608401610695565b61086e838361142a565b505050565b6060610892868686868660405180602001604052806000815250610d57565b9695505050505050565b6108ad6108a761141b565b826114ca565b610939576040517f08c379a000000000000000000000000000000000000000000000000000000000815260206004820152603160248201527f4552433732313a207472616e736665722063616c6c6572206973206e6f74206f60448201527f776e6572206e6f7220617070726f7665640000000000000000000000000000006064820152608401610695565b61086e83838361160d565b600061094f83610b9e565b82106109dd576040517f08c379a000000000000000000000000000000000000000000000000000000000815260206004820152602b60248201527f455243373231456e756d657261626c653a206f776e657220696e646578206f7560448201527f74206f6620626f756e64730000000000000000000000000000000000000000006064820152608401610695565b5073ffffffffffffffffffffffffffffffffffffffff919091166000908152600760209081526040808320938352929052205490565b61086e83838360405180602001604052806000815250610efe565b6000610a3960095490565b8210610ac7576040517f08c379a000000000000000000000000000000000000000000000000000000000815260206004820152602c60248201527f455243373231456e756d657261626c653a20676c6f62616c20696e646578206f60448201527f7574206f6620626f756e647300000000000000000000000000000000000000006064820152608401610695565b60098281548110610ada57610ada613115565b90600052602060002001549050919050565b60008181526002602052604081205473ffffffffffffffffffffffffffffffffffffffff1680610550576040517f08c379a000000000000000000000000000000000000000000000000000000000815260206004820152602960248201527f4552433732313a206f776e657220717565727920666f72206e6f6e657869737460448201527f656e7420746f6b656e00000000000000000000000000000000000000000000006064820152608401610695565b600073ffffffffffffffffffffffffffffffffffffffff8216610c43576040517f08c379a000000000000000000000000000000000000000000000000000000000815260206004820152602a60248201527f4552433732313a2062616c616e636520717565727920666f7220746865207a6560448201527f726f2061646472657373000000000000000000000000000000000000000000006064820152608401610695565b5073ffffffffffffffffffffffffffffffffffffffff1660009081526003602052604090205490565b610c7461141b565b73ffffffffffffffffffffffffffffffffffffffff16610ca9600e5473ffffffffffffffffffffffffffffffffffffffff1690565b73ffffffffffffffffffffffffffffffffffffffff1614610d26576040517f08c379a000000000000000000000000000000000000000000000000000000000815260206004820181905260248201527f4f776e61626c653a2063616c6c6572206973206e6f7420746865206f776e65726044820152606401610695565b610d30600061165b565b565b606060018054610565906130c1565b610d53610d4c61141b565b83836116d2565b5050565b604080516060818101835273ffffffffffffffffffffffffffffffffffffffff89166000818152600d602090815290859020548452830152918101879052610da28882888888611800565b610e2e576040517f08c379a000000000000000000000000000000000000000000000000000000000815260206004820152602160248201527f5369676e657220616e64207369676e617475726520646f206e6f74206d61746360448201527f68000000000000000000000000000000000000000000000000000000000000006064820152608401610695565b73ffffffffffffffffffffffffffffffffffffffff88166000908152600d6020526040902054610e5f906001613173565b73ffffffffffffffffffffffffffffffffffffffff89166000908152600d60205260409081902091909155517f5845892132946850460bff5a0083f71031bc5bf9aadcd40f1de79423eac9b10b90610ebc908a9033908b9061318b565b60405180910390a1610ef23088858b604051602001610edd939291906131cd565b60405160208183030381529060405234611949565b98975050505050505050565b610f0f610f0961141b565b836114ca565b610f9b576040517f08c379a000000000000000000000000000000000000000000000000000000000815260206004820152603160248201527f4552433732313a207472616e736665722063616c6c6572206973206e6f74206f60448201527f776e6572206e6f7220617070726f7665640000000000000000000000000000006064820152608401610695565b610fa78484848461196f565b50505050565b606061055082611a12565b6000610fd9600e5473ffffffffffffffffffffffffffffffffffffffff1690565b73ffffffffffffffffffffffffffffffffffffffff16610ff761135b565b73ffffffffffffffffffffffffffffffffffffffff16146110a35760115434146110a3576040517f08c379a000000000000000000000000000000000000000000000000000000000815260206004820152602960248201527f56616c75652073656e742073686f756c6420626520657175616c20746f20666c60448201527f6f6f7220707269636500000000000000000000000000000000000000000000006064820152608401610695565b60105460095410611136576040517f08c379a000000000000000000000000000000000000000000000000000000000815260206004820152602860248201527f4d6178696d756d20737570706c79206f6620746f6b656e7320616c726561647960448201527f206d696e7465642e0000000000000000000000000000000000000000000000006064820152608401610695565b6000611141600f5490565b9050611151600f80546001019055565b61115b8482611bb7565b6111658184611d85565b9392505050565b606060128054610565906130c1565b600073ffffffffffffffffffffffffffffffffffffffff82167358807bad0b376efc12f5ad86aac70e78ed67deae14156111b757506001610550565b73ffffffffffffffffffffffffffffffffffffffff80841660009081526005602090815260408083209386168352929052205460ff16611165565b6111fa61141b565b73ffffffffffffffffffffffffffffffffffffffff1661122f600e5473ffffffffffffffffffffffffffffffffffffffff1690565b73ffffffffffffffffffffffffffffffffffffffff16146112ac576040517f08c379a000000000000000000000000000000000000000000000000000000000815260206004820181905260248201527f4f776e61626c653a2063616c6c6572206973206e6f7420746865206f776e65726044820152606401610695565b73ffffffffffffffffffffffffffffffffffffffff811661134f576040517f08c379a000000000000000000000000000000000000000000000000000000000815260206004820152602660248201527f4f776e61626c653a206e6577206f776e657220697320746865207a65726f206160448201527f64647265737300000000000000000000000000000000000000000000000000006064820152608401610695565b6113588161165b565b50565b6000333014156113bf57600080368080601f01602080910402602001604051908101604052809392919081815260200183838082843760009201919091525050505036015173ffffffffffffffffffffffffffffffffffffffff1691506113c29050565b50335b90565b60007fffffffff0000000000000000000000000000000000000000000000000000000082167f780e9d63000000000000000000000000000000000000000000000000000000001480610550575061055082611e55565b600061142561135b565b905090565b600081815260046020526040902080547fffffffffffffffffffffffff00000000000000000000000000000000000000001673ffffffffffffffffffffffffffffffffffffffff8416908117909155819061148482610aec565b73ffffffffffffffffffffffffffffffffffffffff167f8c5be1e5ebec7d5bd14f71427d1e84f3dd0314c0f7b2291e5b200ac8c7c3b92560405160405180910390a45050565b60008181526002602052604081205473ffffffffffffffffffffffffffffffffffffffff1661157b576040517f08c379a000000000000000000000000000000000000000000000000000000000815260206004820152602c60248201527f4552433732313a206f70657261746f7220717565727920666f72206e6f6e657860448201527f697374656e7420746f6b656e00000000000000000000000000000000000000006064820152608401610695565b600061158683610aec565b90508073ffffffffffffffffffffffffffffffffffffffff168473ffffffffffffffffffffffffffffffffffffffff1614806115f557508373ffffffffffffffffffffffffffffffffffffffff166115dd846105e8565b73ffffffffffffffffffffffffffffffffffffffff16145b806116055750611605818561117b565b949350505050565b611618838383611f38565b8173ffffffffffffffffffffffffffffffffffffffff1661163882610aec565b73ffffffffffffffffffffffffffffffffffffffff161461086e5761086e61322b565b600e805473ffffffffffffffffffffffffffffffffffffffff8381167fffffffffffffffffffffffff0000000000000000000000000000000000000000831681179093556040519116919082907f8be0079c531659141344cd1fd0a4f28419497f9722a3daafe3b4186f6b6457e090600090a35050565b8173ffffffffffffffffffffffffffffffffffffffff168373ffffffffffffffffffffffffffffffffffffffff161415611768576040517f08c379a000000000000000000000000000000000000000000000000000000000815260206004820152601960248201527f4552433732313a20617070726f766520746f2063616c6c6572000000000000006044820152606401610695565b73ffffffffffffffffffffffffffffffffffffffff83811660008181526005602090815260408083209487168084529482529182902080547fffffffffffffffffffffffffffffffffffffffffffffffffffffffffffffff001686151590811790915591519182527f17307eab39ab6107e8899845ad3d59bd9653f200f220920489ca2b5937696c31910160405180910390a3505050565b600073ffffffffffffffffffffffffffffffffffffffff86166118a5576040517f08c379a000000000000000000000000000000000000000000000000000000000815260206004820152602560248201527f4e61746976654d6574615472616e73616374696f6e3a20494e56414c49445f5360448201527f49474e45520000000000000000000000000000000000000000000000000000006064820152608401610695565b60016118b86118b3876121aa565b612234565b6040805160008152602081018083529290925260ff851690820152606081018690526080810185905260a0016020604051602081039080840390855afa158015611906573d6000803e3d6000fd5b5050506020604051035173ffffffffffffffffffffffffffffffffffffffff168673ffffffffffffffffffffffffffffffffffffffff1614905095945050505050565b606061160584848460405180606001604052806029815260200161341b6029913961227f565b61197a84848461160d565b61198684848484612415565b610fa7576040517f08c379a000000000000000000000000000000000000000000000000000000000815260206004820152603260248201527f4552433732313a207472616e7366657220746f206e6f6e20455243373231526560448201527f63656976657220696d706c656d656e74657200000000000000000000000000006064820152608401610695565b60008181526002602052604090205460609073ffffffffffffffffffffffffffffffffffffffff16611ac6576040517f08c379a000000000000000000000000000000000000000000000000000000000815260206004820152603160248201527f45524337323155524953746f726167653a2055524920717565727920666f722060448201527f6e6f6e6578697374656e7420746f6b656e0000000000000000000000000000006064820152608401610695565b60008281526006602052604081208054611adf906130c1565b80601f0160208091040260200160405190810160405280929190818152602001828054611b0b906130c1565b8015611b585780601f10611b2d57610100808354040283529160200191611b58565b820191906000526020600020905b815481529060010190602001808311611b3b57829003601f168201915b505050505090506000611b696125f0565b9050805160001415611b7c575092915050565b815115611bae578082604051602001611b9692919061325a565b60405160208183030381529060405292505050919050565b611605846125ff565b73ffffffffffffffffffffffffffffffffffffffff8216611c34576040517f08c379a000000000000000000000000000000000000000000000000000000000815260206004820181905260248201527f4552433732313a206d696e7420746f20746865207a65726f20616464726573736044820152606401610695565b60008181526002602052604090205473ffffffffffffffffffffffffffffffffffffffff1615611cc0576040517f08c379a000000000000000000000000000000000000000000000000000000000815260206004820152601c60248201527f4552433732313a20746f6b656e20616c7265616479206d696e746564000000006044820152606401610695565b611ccc6000838361270e565b73ffffffffffffffffffffffffffffffffffffffff82166000908152600360205260408120805460019290611d02908490613173565b909155505060008181526002602052604080822080547fffffffffffffffffffffffff00000000000000000000000000000000000000001673ffffffffffffffffffffffffffffffffffffffff861690811790915590518392907fddf252ad1be2c89b69c2b068fc378daa952ba7f163c4a11628f55a4df523b3ef908290a45050565b60008281526002602052604090205473ffffffffffffffffffffffffffffffffffffffff16611e36576040517f08c379a000000000000000000000000000000000000000000000000000000000815260206004820152602e60248201527f45524337323155524953746f726167653a2055524920736574206f66206e6f6e60448201527f6578697374656e7420746f6b656e0000000000000000000000000000000000006064820152608401610695565b6000828152600660209081526040909120825161086e92840190612b5b565b60007fffffffff0000000000000000000000000000000000000000000000000000000082167f80ac58cd000000000000000000000000000000000000000000000000000000001480611ee857507fffffffff0000000000000000000000000000000000000000000000000000000082167f5b5e139f00000000000000000000000000000000000000000000000000000000145b8061055057507f01ffc9a7000000000000000000000000000000000000000000000000000000007fffffffff00000000000000000000000000000000000000000000000000000000831614610550565b8273ffffffffffffffffffffffffffffffffffffffff16611f5882610aec565b73ffffffffffffffffffffffffffffffffffffffff1614611ffb576040517f08c379a000000000000000000000000000000000000000000000000000000000815260206004820152602560248201527f4552433732313a207472616e736665722066726f6d20696e636f72726563742060448201527f6f776e65720000000000000000000000000000000000000000000000000000006064820152608401610695565b73ffffffffffffffffffffffffffffffffffffffff821661209d576040517f08c379a0000000000000000000000000000000000000000000000000000000008152602060048201526024808201527f4552433732313a207472616e7366657220746f20746865207a65726f2061646460448201527f72657373000000000000000000000000000000000000000000000000000000006064820152608401610695565b6120a883838361270e565b6120b360008261142a565b73ffffffffffffffffffffffffffffffffffffffff831660009081526003602052604081208054600192906120e9908490613289565b909155505073ffffffffffffffffffffffffffffffffffffffff82166000908152600360205260408120805460019290612124908490613173565b909155505060008181526002602052604080822080547fffffffffffffffffffffffff00000000000000000000000000000000000000001673ffffffffffffffffffffffffffffffffffffffff86811691821790925591518493918716917fddf252ad1be2c89b69c2b068fc378daa952ba7f163c4a11628f55a4df523b3ef91a4505050565b60006040518060800160405280604381526020016133d860439139805160209182012083518483015160408087015180519086012090516122179501938452602084019290925273ffffffffffffffffffffffffffffffffffffffff166040830152606082015260800190565b604051602081830303815290604052805190602001209050919050565b600061223f600c5490565b6040517f19010000000000000000000000000000000000000000000000000000000000006020820152602281019190915260428101839052606201612217565b606082471015612311576040517f08c379a000000000000000000000000000000000000000000000000000000000815260206004820152602660248201527f416464726573733a20696e73756666696369656e742062616c616e636520666f60448201527f722063616c6c00000000000000000000000000000000000000000000000000006064820152608401610695565b73ffffffffffffffffffffffffffffffffffffffff85163b61238f576040517f08c379a000000000000000000000000000000000000000000000000000000000815260206004820152601d60248201527f416464726573733a2063616c6c20746f206e6f6e2d636f6e74726163740000006044820152606401610695565b6000808673ffffffffffffffffffffffffffffffffffffffff1685876040516123b891906132a0565b60006040518083038185875af1925050503d80600081146123f5576040519150601f19603f3d011682016040523d82523d6000602084013e6123fa565b606091505b509150915061240a828286612719565b979650505050505050565b600073ffffffffffffffffffffffffffffffffffffffff84163b156125e8578373ffffffffffffffffffffffffffffffffffffffff1663150b7a0261245861141b565b8786866040518563ffffffff1660e01b815260040161247a94939291906132bc565b6020604051808303816000875af19250505080156124d3575060408051601f3d9081017fffffffffffffffffffffffffffffffffffffffffffffffffffffffffffffffe01682019092526124d0918101906132fb565b60015b61259d573d808015612501576040519150601f19603f3d011682016040523d82523d6000602084013e612506565b606091505b508051612595576040517f08c379a000000000000000000000000000000000000000000000000000000000815260206004820152603260248201527f4552433732313a207472616e7366657220746f206e6f6e20455243373231526560448201527f63656976657220696d706c656d656e74657200000000000000000000000000006064820152608401610695565b805181602001fd5b7fffffffff00000000000000000000000000000000000000000000000000000000167f150b7a0200000000000000000000000000000000000000000000000000000000149050611605565b506001611605565b606060138054610565906130c1565b60008181526002602052604090205460609073ffffffffffffffffffffffffffffffffffffffff166126b3576040517f08c379a000000000000000000000000000000000000000000000000000000000815260206004820152602f60248201527f4552433732314d657461646174613a2055524920717565727920666f72206e6f60448201527f6e6578697374656e7420746f6b656e00000000000000000000000000000000006064820152608401610695565b60006126bd6125f0565b905060008151116126dd5760405180602001604052806000815250611165565b806126e78461276c565b6040516020016126f892919061325a565b6040516020818303038152906040529392505050565b61086e83838361289e565b60608315612728575081611165565b8251156127385782518084602001fd5b816040517f08c379a00000000000000000000000000000000000000000000000000000000081526004016106959190612cb5565b6060816127ac57505060408051808201909152600181527f3000000000000000000000000000000000000000000000000000000000000000602082015290565b8160005b81156127d657806127c081613318565b91506127cf9050600a83613380565b91506127b0565b60008167ffffffffffffffff8111156127f1576127f1612d34565b6040519080825280601f01601f19166020018201604052801561281b576020820181803683370190505b5090505b841561160557612830600183613289565b915061283d600a86613394565b612848906030613173565b60f81b81838151811061285d5761285d613115565b60200101907effffffffffffffffffffffffffffffffffffffffffffffffffffffffffffff1916908160001a905350612897600a86613380565b945061281f565b73ffffffffffffffffffffffffffffffffffffffff83166129065761290181600980546000838152600a60205260408120829055600182018355919091527f6e1540171b6c0c960b71a7020d9f60077f6af931a8bbf590da0223dacf75c7af0155565b612943565b8173ffffffffffffffffffffffffffffffffffffffff168373ffffffffffffffffffffffffffffffffffffffff16146129435761294383826129a4565b73ffffffffffffffffffffffffffffffffffffffff82166129675761086e81612a5b565b8273ffffffffffffffffffffffffffffffffffffffff168273ffffffffffffffffffffffffffffffffffffffff161461086e5761086e8282612b0a565b600060016129b184610b9e565b6129bb9190613289565b600083815260086020526040902054909150808214612a1b5773ffffffffffffffffffffffffffffffffffffffff841660009081526007602090815260408083208584528252808320548484528184208190558352600890915290208190555b50600091825260086020908152604080842084905573ffffffffffffffffffffffffffffffffffffffff9094168352600781528383209183525290812055565b600954600090612a6d90600190613289565b6000838152600a602052604081205460098054939450909284908110612a9557612a95613115565b906000526020600020015490508060098381548110612ab657612ab6613115565b6000918252602080832090910192909255828152600a90915260408082208490558582528120556009805480612aee57612aee6133a8565b6001900381819060005260206000200160009055905550505050565b6000612b1583610b9e565b73ffffffffffffffffffffffffffffffffffffffff9093166000908152600760209081526040808320868452825280832085905593825260089052919091209190915550565b828054612b67906130c1565b90600052602060002090601f016020900481019282612b895760008555612bcf565b82601f10612ba257805160ff1916838001178555612bcf565b82800160010185558215612bcf579182015b82811115612bcf578251825591602001919060010190612bb4565b50612bdb929150612bdf565b5090565b5b80821115612bdb5760008155600101612be0565b7fffffffff000000000000000000000000000000000000000000000000000000008116811461135857600080fd5b600060208284031215612c3457600080fd5b813561116581612bf4565b60005b83811015612c5a578181015183820152602001612c42565b83811115610fa75750506000910152565b60008151808452612c83816020860160208601612c3f565b601f017fffffffffffffffffffffffffffffffffffffffffffffffffffffffffffffffe0169290920160200192915050565b6020815260006111656020830184612c6b565b600060208284031215612cda57600080fd5b5035919050565b803573ffffffffffffffffffffffffffffffffffffffff81168114612d0557600080fd5b919050565b60008060408385031215612d1d57600080fd5b612d2683612ce1565b946020939093013593505050565b7f4e487b7100000000000000000000000000000000000000000000000000000000600052604160045260246000fd5b600067ffffffffffffffff80841115612d7e57612d7e612d34565b604051601f85017fffffffffffffffffffffffffffffffffffffffffffffffffffffffffffffffe0908116603f01168101908282118183101715612dc457612dc4612d34565b81604052809350858152868686011115612ddd57600080fd5b858560208301376000602087830101525050509392505050565b600082601f830112612e0857600080fd5b61116583833560208501612d63565b803560ff81168114612d0557600080fd5b600080600080600060a08688031215612e4057600080fd5b612e4986612ce1565b9450602086013567ffffffffffffffff811115612e6557600080fd5b612e7188828901612df7565b9450506040860135925060608601359150612e8e60808701612e17565b90509295509295909350565b600080600060608486031215612eaf57600080fd5b612eb884612ce1565b9250612ec660208501612ce1565b9150604084013590509250925092565b600060208284031215612ee857600080fd5b61116582612ce1565b60008060408385031215612f0457600080fd5b612f0d83612ce1565b915060208301358015158114612f2257600080fd5b809150509250929050565b60008060008060008060c08789031215612f4657600080fd5b612f4f87612ce1565b9550602087013567ffffffffffffffff80821115612f6c57600080fd5b612f788a838b01612df7565b96506040890135955060608901359450612f9460808a01612e17565b935060a0890135915080821115612faa57600080fd5b50612fb789828a01612df7565b9150509295509295509295565b60008060008060808587031215612fda57600080fd5b612fe385612ce1565b9350612ff160208601612ce1565b925060408501359150606085013567ffffffffffffffff81111561301457600080fd5b61302087828801612df7565b91505092959194509250565b6000806040838503121561303f57600080fd5b61304883612ce1565b9150602083013567ffffffffffffffff81111561306457600080fd5b8301601f8101851361307557600080fd5b61308485823560208401612d63565b9150509250929050565b600080604083850312156130a157600080fd5b6130aa83612ce1565b91506130b860208401612ce1565b90509250929050565b600181811c908216806130d557607f821691505b6020821081141561310f577f4e487b7100000000000000000000000000000000000000000000000000000000600052602260045260246000fd5b50919050565b7f4e487b7100000000000000000000000000000000000000000000000000000000600052603260045260246000fd5b7f4e487b7100000000000000000000000000000000000000000000000000000000600052601160045260246000fd5b6000821982111561318657613186613144565b500190565b600073ffffffffffffffffffffffffffffffffffffffff8086168352808516602084015250606060408301526131c46060830184612c6b565b95945050505050565b600084516131df818460208901612c3f565b8451908301906131f3818360208901612c3f565b60609490941b7fffffffffffffffffffffffffffffffffffffffff000000000000000000000000169301928352505060140192915050565b7f4e487b7100000000000000000000000000000000000000000000000000000000600052600160045260246000fd5b6000835161326c818460208801612c3f565b835190830190613280818360208801612c3f565b01949350505050565b60008282101561329b5761329b613144565b500390565b600082516132b2818460208701612c3f565b9190910192915050565b600073ffffffffffffffffffffffffffffffffffffffff8087168352808616602084015250836040830152608060608301526108926080830184612c6b565b60006020828403121561330d57600080fd5b815161116581612bf4565b60007fffffffffffffffffffffffffffffffffffffffffffffffffffffffffffffffff82141561334a5761334a613144565b5060010190565b7f4e487b7100000000000000000000000000000000000000000000000000000000600052601260045260246000fd5b60008261338f5761338f613351565b500490565b6000826133a3576133a3613351565b500690565b7f4e487b7100000000000000000000000000000000000000000000000000000000600052603160045260246000fdfe4d6574615472616e73616374696f6e2875696e74323536206e6f6e63652c616464726573732066726f6d2c62797465732066756e6374696f6e5369676e617475726529416464726573733a206c6f772d6c6576656c2063616c6c20776974682076616c7565206661696c6564a264697066735822122054e1be53f48b5fc46a8711ee7cba4b641d190d345485b87c23fd68e021dd1f3e64736f6c634300080c0033454950373132446f6d61696e28737472696e67206e616d652c737472696e672076657273696f6e2c6164647265737320766572696679696e67436f6e74726163742c627974657333322073616c7429",
  "linkReferences": {},
  "deployedLinkReferences": {}
}