{
  "_format": "hh-sol-artifact-1",
  "contractName": "NFTAuctions",
  "sourceName": "contracts/NFTAuctions.sol",
  "abi": [
    {
      "inputs": [
        {
          "internalType": "uint256",
          "name": "maxDays_",
          "type": "uint256"
        },
        {
          "internalType": "address",
          "name": "collectionManager_",
          "type": "address"
        },
        {
          "internalType": "address",
          "name": "salesService_",
          "type": "address"
        },
        {
          "internalType": "address",
          "name": "trustedForwarder_",
          "type": "address"
        }
      ],
      "stateMutability": "nonpayable",
      "type": "constructor"
    },
    {
      "anonymous": false,
      "inputs": [
        {
          "indexed": true,
          "internalType": "address",
          "name": "currentBidder",
          "type": "address"
        },
        {
          "indexed": true,
          "internalType": "address",
          "name": "collectionAddress",
          "type": "address"
        },
        {
          "indexed": true,
          "internalType": "uint256",
          "name": "tokenId",
          "type": "uint256"
        },
        {
          "indexed": false,
          "internalType": "uint256",
          "name": "currentBid",
          "type": "uint256"
        },
        {
          "indexed": false,
          "internalType": "uint256",
          "name": "endsAt",
          "type": "uint256"
        }
      ],
      "name": "BidCreated",
      "type": "event"
    },
    {
      "anonymous": false,
      "inputs": [
        {
          "indexed": true,
          "internalType": "address",
          "name": "seller",
          "type": "address"
        },
        {
          "indexed": true,
          "internalType": "address",
          "name": "collectionAddress",
          "type": "address"
        },
        {
          "indexed": true,
          "internalType": "uint256",
          "name": "tokenId",
          "type": "uint256"
        },
        {
          "indexed": false,
          "internalType": "uint256",
          "name": "price",
          "type": "uint256"
        },
        {
          "indexed": false,
          "internalType": "uint256",
          "name": "endsAt",
          "type": "uint256"
        }
      ],
      "name": "ItemCreated",
      "type": "event"
    },
    {
      "anonymous": false,
      "inputs": [
        {
          "indexed": false,
          "internalType": "address",
          "name": "from",
          "type": "address"
        },
        {
          "indexed": true,
          "internalType": "address",
          "name": "to",
          "type": "address"
        },
        {
          "indexed": true,
          "internalType": "address",
          "name": "collectionAddress",
          "type": "address"
        },
        {
          "indexed": true,
          "internalType": "uint256",
          "name": "tokenId",
          "type": "uint256"
        },
        {
          "indexed": false,
          "internalType": "uint256",
          "name": "price",
          "type": "uint256"
        },
        {
          "indexed": false,
          "internalType": "bool",
          "name": "sold",
          "type": "bool"
        }
      ],
      "name": "ItemTransferred",
      "type": "event"
    },
    {
      "anonymous": false,
      "inputs": [
        {
          "indexed": true,
          "internalType": "address",
          "name": "previousOwner",
          "type": "address"
        },
        {
          "indexed": true,
          "internalType": "address",
          "name": "newOwner",
          "type": "address"
        }
      ],
      "name": "OwnershipTransferred",
      "type": "event"
    },
    {
      "anonymous": false,
      "inputs": [
        {
          "indexed": false,
          "internalType": "address",
          "name": "account",
          "type": "address"
        }
      ],
      "name": "Paused",
      "type": "event"
    },
    {
      "anonymous": false,
      "inputs": [
        {
          "indexed": false,
          "internalType": "address",
          "name": "account",
          "type": "address"
        }
      ],
      "name": "Unpaused",
      "type": "event"
    },
    {
      "inputs": [
        {
          "internalType": "address",
          "name": "collectionAddress_",
          "type": "address"
        },
        {
          "internalType": "uint256",
          "name": "tokenId_",
          "type": "uint256"
        },
        {
          "internalType": "address",
          "name": "erc20Address_",
          "type": "address"
        },
        {
          "internalType": "uint256",
          "name": "amountIn_",
          "type": "uint256"
        }
      ],
      "name": "bid",
      "outputs": [],
      "stateMutability": "payable",
      "type": "function"
    },
    {
      "inputs": [
        {
          "internalType": "address",
          "name": "collectionAddress_",
          "type": "address"
        },
        {
          "internalType": "uint256",
          "name": "tokenId_",
          "type": "uint256"
        },
        {
          "internalType": "uint256",
          "name": "floorPrice_",
          "type": "uint256"
        },
        {
          "internalType": "uint256",
          "name": "days_",
          "type": "uint256"
        }
      ],
      "name": "createItem",
      "outputs": [],
      "stateMutability": "nonpayable",
      "type": "function"
    },
    {
      "inputs": [
        {
          "internalType": "address",
          "name": "collectionAddress_",
          "type": "address"
        },
        {
          "internalType": "uint256",
          "name": "tokenId_",
          "type": "uint256"
        }
      ],
      "name": "finishAuction",
      "outputs": [],
      "stateMutability": "nonpayable",
      "type": "function"
    },
    {
      "inputs": [
        {
          "internalType": "address",
          "name": "collectionAddress_",
          "type": "address"
        }
      ],
      "name": "getAllItemsCount",
      "outputs": [
        {
          "internalType": "uint256",
          "name": "",
          "type": "uint256"
        }
      ],
      "stateMutability": "view",
      "type": "function"
    },
    {
      "inputs": [
        {
          "internalType": "address",
          "name": "user_",
          "type": "address"
        },
        {
          "internalType": "address",
          "name": "collectionAddress_",
          "type": "address"
        }
      ],
      "name": "getUserItemsCount",
      "outputs": [
        {
          "internalType": "uint256",
          "name": "",
          "type": "uint256"
        }
      ],
      "stateMutability": "view",
      "type": "function"
    },
    {
      "inputs": [
        {
          "internalType": "address",
          "name": "forwarder",
          "type": "address"
        }
      ],
      "name": "isTrustedForwarder",
      "outputs": [
        {
          "internalType": "bool",
          "name": "",
          "type": "bool"
        }
      ],
      "stateMutability": "view",
      "type": "function"
    },
    {
      "inputs": [
        {
          "internalType": "address",
          "name": "collectionAddress_",
          "type": "address"
        },
        {
          "internalType": "uint256",
          "name": "index_",
          "type": "uint256"
        }
      ],
      "name": "itemByIndex",
      "outputs": [
        {
          "internalType": "address",
          "name": "seller",
          "type": "address"
        },
        {
          "internalType": "address",
          "name": "currentBidder",
          "type": "address"
        },
        {
          "internalType": "uint256",
          "name": "currentBid",
          "type": "uint256"
        },
        {
          "internalType": "uint256",
          "name": "endsAt",
          "type": "uint256"
        },
        {
          "internalType": "address",
          "name": "collectionAddress",
          "type": "address"
        },
        {
          "internalType": "uint256",
          "name": "tokenId",
          "type": "uint256"
        }
      ],
      "stateMutability": "view",
      "type": "function"
    },
    {
      "inputs": [
        {
          "internalType": "address",
          "name": "user_",
          "type": "address"
        },
        {
          "internalType": "address",
          "name": "collectionAddress_",
          "type": "address"
        },
        {
          "internalType": "uint256",
          "name": "index_",
          "type": "uint256"
        }
      ],
      "name": "itemOfUserByIndex",
      "outputs": [
        {
          "internalType": "address",
          "name": "seller",
          "type": "address"
        },
        {
          "internalType": "address",
          "name": "currentBidder",
          "type": "address"
        },
        {
          "internalType": "uint256",
          "name": "currentBid",
          "type": "uint256"
        },
        {
          "internalType": "uint256",
          "name": "endsAt",
          "type": "uint256"
        },
        {
          "internalType": "address",
          "name": "collectionAddress",
          "type": "address"
        },
        {
          "internalType": "uint256",
          "name": "tokenId",
          "type": "uint256"
        }
      ],
      "stateMutability": "view",
      "type": "function"
    },
    {
      "inputs": [
        {
          "internalType": "address",
          "name": "",
          "type": "address"
        },
        {
          "internalType": "uint256",
          "name": "",
          "type": "uint256"
        }
      ],
      "name": "items",
      "outputs": [
        {
          "internalType": "address",
          "name": "seller",
          "type": "address"
        },
        {
          "internalType": "address",
          "name": "currentBidder",
          "type": "address"
        },
        {
          "internalType": "uint256",
          "name": "currentBid",
          "type": "uint256"
        },
        {
          "internalType": "uint256",
          "name": "endsAt",
          "type": "uint256"
        }
      ],
      "stateMutability": "view",
      "type": "function"
    },
    {
      "inputs": [
        {
          "internalType": "address",
          "name": "",
          "type": "address"
        },
        {
          "internalType": "address",
          "name": "",
          "type": "address"
        },
        {
          "internalType": "uint256",
          "name": "",
          "type": "uint256"
        },
        {
          "internalType": "bytes",
          "name": "",
          "type": "bytes"
        }
      ],
      "name": "onERC721Received",
      "outputs": [
        {
          "internalType": "bytes4",
          "name": "",
          "type": "bytes4"
        }
      ],
      "stateMutability": "nonpayable",
      "type": "function"
    },
    {
      "inputs": [],
      "name": "owner",
      "outputs": [
        {
          "internalType": "address",
          "name": "",
          "type": "address"
        }
      ],
      "stateMutability": "view",
      "type": "function"
    },
    {
      "inputs": [],
      "name": "paused",
      "outputs": [
        {
          "internalType": "bool",
          "name": "",
          "type": "bool"
        }
      ],
      "stateMutability": "view",
      "type": "function"
    },
    {
      "inputs": [],
      "name": "renounceOwnership",
      "outputs": [],
      "stateMutability": "nonpayable",
      "type": "function"
    },
    {
      "inputs": [
        {
          "internalType": "bool",
          "name": "status_",
          "type": "bool"
        }
      ],
      "name": "setPanicSwitch",
      "outputs": [],
      "stateMutability": "nonpayable",
      "type": "function"
    },
    {
      "inputs": [
        {
          "internalType": "address",
          "name": "newOwner",
          "type": "address"
        }
      ],
      "name": "transferOwnership",
      "outputs": [],
      "stateMutability": "nonpayable",
      "type": "function"
    }
  ],
  "bytecode": "0x60a06040523480156200001157600080fd5b506040516200298b3803806200298b833981016040819052620000349162000168565b6001600160a01b03811660805260016000556200005a62000054620000a0565b620000bc565b506001805460ff60a01b19169055600592909255600680546001600160a01b039283166001600160a01b03199182161790915560078054929093169116179055620001bc565b6000620000b76200010e60201b620016e31760201c565b905090565b600180546001600160a01b038381166001600160a01b0319831681179093556040519116919082907f8be0079c531659141344cd1fd0a4f28419497f9722a3daafe3b4186f6b6457e090600090a35050565b6080516000906001600160a01b031633141562000132575060131936013560601c90565b620000b76200014760201b620017581760201c565b3390565b80516001600160a01b03811681146200016357600080fd5b919050565b600080600080608085870312156200017f57600080fd5b8451935062000191602086016200014b565b9250620001a1604086016200014b565b9150620001b1606086016200014b565b905092959194509250565b6080516127ac620001df600039600081816101a601526116e701526127ac6000f3fe6080604052600436106100e85760003560e01c80638da5cb5b1161008a578063be34ecf211610059578063be34ecf2146103ca578063eb1fed8f146103f8578063f2fde38b14610418578063f6176e641461043857600080fd5b80638da5cb5b14610342578063a3ed5be614610377578063aae61ba714610397578063b5678588146103b757600080fd5b80635c80a435116100c65780635c80a435146101f35780635c975abb146102915780636c298670146102c1578063715018a61461032d57600080fd5b8063150b7a02146100ed5780634e03dd2c14610167578063572b6c0514610189575b600080fd5b3480156100f957600080fd5b506101316101083660046123f1565b7f150b7a0200000000000000000000000000000000000000000000000000000000949350505050565b6040517fffffffff0000000000000000000000000000000000000000000000000000000090911681526020015b60405180910390f35b34801561017357600080fd5b506101876101823660046124f9565b610458565b005b34801561019557600080fd5b506101e36101a4366004612516565b7f000000000000000000000000000000000000000000000000000000000000000073ffffffffffffffffffffffffffffffffffffffff90811691161490565b604051901515815260200161015e565b3480156101ff57600080fd5b5061025961020e366004612531565b60026020818152600093845260408085209091529183529120805460018201549282015460039092015473ffffffffffffffffffffffffffffffffffffffff91821693909116919084565b6040805173ffffffffffffffffffffffffffffffffffffffff958616815294909316602085015291830152606082015260800161015e565b34801561029d57600080fd5b5060015474010000000000000000000000000000000000000000900460ff166101e3565b3480156102cd57600080fd5b506102e16102dc36600461255b565b610530565b6040805173ffffffffffffffffffffffffffffffffffffffff978816815295871660208701528501939093526060840191909152909216608082015260a081019190915260c00161015e565b34801561033957600080fd5b50610187610696565b34801561034e57600080fd5b5060015460405173ffffffffffffffffffffffffffffffffffffffff909116815260200161015e565b34801561038357600080fd5b50610187610392366004612531565b61075c565b3480156103a357600080fd5b506102e16103b2366004612531565b6109d1565b6101876103c5366004612597565b610b2f565b3480156103d657600080fd5b506103ea6103e5366004612516565b6111b9565b60405190815260200161015e565b34801561040457600080fd5b506103ea6104133660046125db565b6111ed565b34801561042457600080fd5b50610187610433366004612516565b611231565b34801561044457600080fd5b5061018761045336600461260e565b611397565b61046061175c565b73ffffffffffffffffffffffffffffffffffffffff1661049560015473ffffffffffffffffffffffffffffffffffffffff1690565b73ffffffffffffffffffffffffffffffffffffffff1614610517576040517f08c379a000000000000000000000000000000000000000000000000000000000815260206004820181905260248201527f4f776e61626c653a2063616c6c6572206973206e6f7420746865206f776e657260448201526064015b60405180910390fd5b801561052857610525611766565b50565b61052561187d565b73ffffffffffffffffffffffffffffffffffffffff808416600090815260036020908152604080832093861683529290529081208190819081908190819061057790611952565b87106105df576040517f08c379a000000000000000000000000000000000000000000000000000000000815260206004820152601360248201527f496e646578206f7574206f6620626f756e647300000000000000000000000000604482015260640161050e565b73ffffffffffffffffffffffffffffffffffffffff808a166000908152600360209081526040808320938c1683529290522061061b908861195c565b73ffffffffffffffffffffffffffffffffffffffff9889166000908152600260208181526040808420858552825292839020835160808101855281548e168082526001830154909e16928101839052928101549383018490526003015460609092018290529a9c9a9b50909990985092965094509092505050565b61069e61175c565b73ffffffffffffffffffffffffffffffffffffffff166106d360015473ffffffffffffffffffffffffffffffffffffffff1690565b73ffffffffffffffffffffffffffffffffffffffff1614610750576040517f08c379a000000000000000000000000000000000000000000000000000000000815260206004820181905260248201527f4f776e61626c653a2063616c6c6572206973206e6f7420746865206f776e6572604482015260640161050e565b61075a6000611968565b565b600260005414156107c9576040517f08c379a000000000000000000000000000000000000000000000000000000000815260206004820152601f60248201527f5265656e7472616e637947756172643a207265656e7472616e742063616c6c00604482015260640161050e565b6002600081815573ffffffffffffffffffffffffffffffffffffffff841681526020918252604080822084835290925220600301541580159061083e575073ffffffffffffffffffffffffffffffffffffffff8216600090815260026020908152604080832084845290915290206003015442115b6108a4576040517f08c379a000000000000000000000000000000000000000000000000000000000815260206004820152601860248201527f41756374696f6e206d7573742062652066696e69736865640000000000000000604482015260640161050e565b6108ac61175c565b73ffffffffffffffffffffffffffffffffffffffff838116600090815260026020908152604080832086845290915290205481169116148061092c57506108f161175c565b73ffffffffffffffffffffffffffffffffffffffff838116600090815260026020908152604080832086845290915290206001015481169116145b156109405761093b82826119df565b6109c8565b6040517f08c379a000000000000000000000000000000000000000000000000000000000815260206004820152602160248201527f4f6e6c792041756374696f6e207061727469636970616e747320616c6c6f776560448201527f6400000000000000000000000000000000000000000000000000000000000000606482015260840161050e565b50506001600055565b600080600080600080610a21600460008a73ffffffffffffffffffffffffffffffffffffffff1673ffffffffffffffffffffffffffffffffffffffff168152602001908152602001600020611952565b8710610a89576040517f08c379a000000000000000000000000000000000000000000000000000000000815260206004820152601360248201527f496e646578206f7574206f6620626f756e647300000000000000000000000000604482015260640161050e565b73ffffffffffffffffffffffffffffffffffffffff88166000908152600460205260409020610ab8908861195c565b73ffffffffffffffffffffffffffffffffffffffff9889166000908152600260208181526040808420858552825292839020835160808101855281548e168082526001830154909e16928101839052928101549383018490526003015460609092018290529a9b9199509750929550935090915050565b60026000541415610b9c576040517f08c379a000000000000000000000000000000000000000000000000000000000815260206004820152601f60248201527f5265656e7472616e637947756172643a207265656e7472616e742063616c6c00604482015260640161050e565b600260005560015474010000000000000000000000000000000000000000900460ff1615610c26576040517f08c379a000000000000000000000000000000000000000000000000000000000815260206004820152601060248201527f5061757361626c653a2070617573656400000000000000000000000000000000604482015260640161050e565b610c2e61175c565b73ffffffffffffffffffffffffffffffffffffffff8581166000908152600260209081526040808320888452909152902054811691161415610ccc576040517f08c379a000000000000000000000000000000000000000000000000000000000815260206004820152601860248201527f53656c6c6572206973206e6f7420617574686f72697a65640000000000000000604482015260640161050e565b73ffffffffffffffffffffffffffffffffffffffff808516600090815260026020908152604080832087845290915290206001015416610d0a61175c565b73ffffffffffffffffffffffffffffffffffffffff161415610d88576040517f08c379a000000000000000000000000000000000000000000000000000000000815260206004820181905260248201527f43757272656e7420626964646572206973206e6f7420617574686f72697a6564604482015260640161050e565b73ffffffffffffffffffffffffffffffffffffffff8416600090815260026020908152604080832086845290915290206003015415801590610dfc575073ffffffffffffffffffffffffffffffffffffffff8416600090815260026020908152604080832086845290915290206003015442105b610e62576040517f08c379a000000000000000000000000000000000000000000000000000000000815260206004820152601660248201527f54696d657374616d70206f7574206f662072616e676500000000000000000000604482015260640161050e565b73ffffffffffffffffffffffffffffffffffffffff80851660009081526002602081815260408084208885528252808420815160808101835281548716815260018201549096169286019290925291810154918401919091526003015460608301523415610f74576007546040517f25d3783d00000000000000000000000000000000000000000000000000000000815230600482015234602482018190526000604483015273ffffffffffffffffffffffffffffffffffffffff909216916325d3783d9160640160206040518083038185885af1158015610f48573d6000803e3d6000fd5b50505050506040513d601f19601f82011682018060405250810190610f6d9190612647565b905061104f565b60075473ffffffffffffffffffffffffffffffffffffffff166392cddeb9610f9a61175c565b6040517fffffffff0000000000000000000000000000000000000000000000000000000060e084901b16815273ffffffffffffffffffffffffffffffffffffffff918216600482015230602482015290871660448201526064810186905260848101869052600060a482015260c4016020604051808303816000875af1158015611028573d6000803e3d6000fd5b505050506040513d601f19601f8201168201806040525081019061104c9190612647565b90505b602082015173ffffffffffffffffffffffffffffffffffffffff16611106578160400151811015611101576040517f08c379a0000000000000000000000000000000000000000000000000000000008152602060048201526024808201527f596f757220626964206d757374206265203e3d207468616e20666c6f6f72207060448201527f7269636500000000000000000000000000000000000000000000000000000000606482015260840161050e565b611199565b81604001518111611199576040517f08c379a000000000000000000000000000000000000000000000000000000000815260206004820152602560248201527f596f757220626964206d75737420626520686967686572207468616e206c617360448201527f7420626964000000000000000000000000000000000000000000000000000000606482015260840161050e565b6111ac86866111a661175c565b84611ccf565b5050600160005550505050565b73ffffffffffffffffffffffffffffffffffffffff811660009081526004602052604081206111e790611952565b92915050565b73ffffffffffffffffffffffffffffffffffffffff8083166000908152600360209081526040808320938516835292905290812061122a90611952565b9392505050565b61123961175c565b73ffffffffffffffffffffffffffffffffffffffff1661126e60015473ffffffffffffffffffffffffffffffffffffffff1690565b73ffffffffffffffffffffffffffffffffffffffff16146112eb576040517f08c379a000000000000000000000000000000000000000000000000000000000815260206004820181905260248201527f4f776e61626c653a2063616c6c6572206973206e6f7420746865206f776e6572604482015260640161050e565b73ffffffffffffffffffffffffffffffffffffffff811661138e576040517f08c379a000000000000000000000000000000000000000000000000000000000815260206004820152602660248201527f4f776e61626c653a206e6577206f776e657220697320746865207a65726f206160448201527f6464726573730000000000000000000000000000000000000000000000000000606482015260840161050e565b61052581611968565b60026000541415611404576040517f08c379a000000000000000000000000000000000000000000000000000000000815260206004820152601f60248201527f5265656e7472616e637947756172643a207265656e7472616e742063616c6c00604482015260640161050e565b600260005560015474010000000000000000000000000000000000000000900460ff161561148e576040517f08c379a000000000000000000000000000000000000000000000000000000000815260206004820152601060248201527f5061757361626c653a2070617573656400000000000000000000000000000000604482015260640161050e565b61149784611ed8565b60008211611501576040517f08c379a000000000000000000000000000000000000000000000000000000000815260206004820152601760248201527f466c6f6f72207072696365206d757374206265203e2030000000000000000000604482015260640161050e565b6001811015801561151457506005548111155b61157a576040517f08c379a000000000000000000000000000000000000000000000000000000000815260206004820152601660248201527f4475726174696f6e206f7574206f6620626f756e647300000000000000000000604482015260640161050e565b61158e61158561175c565b85858585611fd2565b828473ffffffffffffffffffffffffffffffffffffffff166115ae61175c565b73ffffffffffffffffffffffffffffffffffffffff167fd62e911fa159770cd2d3026e066f1bd79277db6719de17aa15aa14237790901e856115f186601861268f565b6115fc90603c61268f565b61160790603c61268f565b61161190426126cc565b6040805192835260208301919091520160405180910390a48373ffffffffffffffffffffffffffffffffffffffff166342842e0e61164d61175c565b6040517fffffffff0000000000000000000000000000000000000000000000000000000060e084901b16815273ffffffffffffffffffffffffffffffffffffffff909116600482015230602482015260448101869052606401600060405180830381600087803b1580156116c057600080fd5b505af11580156116d4573d6000803e3d6000fd5b50506001600055505050505050565b60007f000000000000000000000000000000000000000000000000000000000000000073ffffffffffffffffffffffffffffffffffffffff1633141561174e57507fffffffffffffffffffffffffffffffffffffffffffffffffffffffffffffffec36013560601c90565b503390565b905090565b3390565b60006117536116e3565b60015474010000000000000000000000000000000000000000900460ff16156117eb576040517f08c379a000000000000000000000000000000000000000000000000000000000815260206004820152601060248201527f5061757361626c653a2070617573656400000000000000000000000000000000604482015260640161050e565b600180547fffffffffffffffffffffff00ffffffffffffffffffffffffffffffffffffffff16740100000000000000000000000000000000000000001790557f62e78cea01bee320cd4e420270b5ea74000d11b0c9f74754ebdbfc544b05a25861185361175c565b60405173ffffffffffffffffffffffffffffffffffffffff909116815260200160405180910390a1565b60015474010000000000000000000000000000000000000000900460ff16611901576040517f08c379a000000000000000000000000000000000000000000000000000000000815260206004820152601460248201527f5061757361626c653a206e6f7420706175736564000000000000000000000000604482015260640161050e565b600180547fffffffffffffffffffffff00ffffffffffffffffffffffffffffffffffffffff1690557f5db9ee0a495bf2e6ff9c91a7834c1ba4fdd244a5e8aa4e537bd38aeae4b073aa61185361175c565b60006111e7825490565b600061122a8383612134565b6001805473ffffffffffffffffffffffffffffffffffffffff8381167fffffffffffffffffffffffff0000000000000000000000000000000000000000831681179093556040519116919082907f8be0079c531659141344cd1fd0a4f28419497f9722a3daafe3b4186f6b6457e090600090a35050565b73ffffffffffffffffffffffffffffffffffffffff808316600090815260026020818152604080842086855282528084208151608081018352815487168152600182015490961692860183905292830154908501526003909101546060840152819015611b895750506020810151600754825160408085015160065491517fb88c914800000000000000000000000000000000000000000000000000000000815273ffffffffffffffffffffffffffffffffffffffff8981166004830152600195811694630fa2f03b9490939291169063b88c914890602401602060405180830381865afa158015611ad5573d6000803e3d6000fd5b505050506040513d601f19601f82011682018060405250810190611af99190612647565b6040517fffffffff0000000000000000000000000000000000000000000000000000000060e086901b16815273ffffffffffffffffffffffffffffffffffffffff909316600484015260248301919091526044820152606401600060405180830381600087803b158015611b6c57600080fd5b505af1158015611b80573d6000803e3d6000fd5b50505050611b90565b5050805160005b838573ffffffffffffffffffffffffffffffffffffffff168373ffffffffffffffffffffffffffffffffffffffff167f92043c76f0d6ea2475cc5022148da1d7fbf8bcf7b55823efe440fd8eb16bbb738660000151876040015186604051611c259392919073ffffffffffffffffffffffffffffffffffffffff93909316835260208301919091521515604082015260600190565b60405180910390a48251611c3a90868661215e565b6040517f42842e0e00000000000000000000000000000000000000000000000000000000815230600482015273ffffffffffffffffffffffffffffffffffffffff8381166024830152604482018690528616906342842e0e90606401600060405180830381600087803b158015611cb057600080fd5b505af1158015611cc4573d6000803e3d6000fd5b505050505050505050565b73ffffffffffffffffffffffffffffffffffffffff848116600090815260026020818152604080842088855290915282206001810180549282018054908790557fffffffffffffffffffffffff000000000000000000000000000000000000000084168887161790915560039091015491909316929190611d519042906126e4565b905062015180811015611da057611d6b42620151806126cc565b73ffffffffffffffffffffffffffffffffffffffff881660009081526002602090815260408083208a84529091529020600301555b73ffffffffffffffffffffffffffffffffffffffff87811660008181526002602081815260408084208c85528252928390206001810154928101546003909101548451918252918101919091528a9491909116917f23c31f8ed9ad472d2122170e55b87eff1ccb31b98537277b6a9b3f1df56d97b8910160405180910390a473ffffffffffffffffffffffffffffffffffffffff831615611ecf576007546040517f0fa2f03b00000000000000000000000000000000000000000000000000000000815273ffffffffffffffffffffffffffffffffffffffff8581166004830152602482018590526000604483015290911690630fa2f03b90606401600060405180830381600087803b158015611eb657600080fd5b505af1158015611eca573d6000803e3d6000fd5b505050505b50505050505050565b6006546040517f8214ff3e00000000000000000000000000000000000000000000000000000000815273ffffffffffffffffffffffffffffffffffffffff838116600483015290911690638214ff3e90602401602060405180830381865afa158015611f48573d6000803e3d6000fd5b505050506040513d601f19601f82011682018060405250810190611f6c91906126fb565b610525576040517f08c379a000000000000000000000000000000000000000000000000000000000815260206004820152601b60248201527f436f6e7472616374206973206e6f742077686974656c69737465640000000000604482015260640161050e565b73ffffffffffffffffffffffffffffffffffffffff808616600090815260036020908152604080832093881683529290522061200e908461223f565b5073ffffffffffffffffffffffffffffffffffffffff8416600090815260046020526040902061203e908461223f565b506040805160808101825273ffffffffffffffffffffffffffffffffffffffff87168152600060208201529081018390526060810161207e83601861268f565b61208990603c61268f565b61209490603c61268f565b61209e90426126cc565b905273ffffffffffffffffffffffffffffffffffffffff948516600090815260026020818152604080842097845296815291869020835181549089167fffffffffffffffffffffffff000000000000000000000000000000000000000091821617825592840151600182018054919099169316929092179096559381015194840194909455505060609091015160039091015550565b600082600001828154811061214b5761214b612718565b9060005260206000200154905092915050565b73ffffffffffffffffffffffffffffffffffffffff808416600090815260036020908152604080832093861683529290522061219a908261224b565b5073ffffffffffffffffffffffffffffffffffffffff821660009081526004602052604090206121ca908261224b565b5073ffffffffffffffffffffffffffffffffffffffff909116600090815260026020818152604080842094845293905291812080547fffffffffffffffffffffffff00000000000000000000000000000000000000009081168255600182018054909116905591820181905560039091015550565b600061122a8383612257565b600061122a83836122a6565b600081815260018301602052604081205461229e575081546001818101845560008481526020808220909301849055845484825282860190935260409020919091556111e7565b5060006111e7565b6000818152600183016020526040812054801561238f5760006122ca6001836126e4565b85549091506000906122de906001906126e4565b90508181146123435760008660000182815481106122fe576122fe612718565b906000526020600020015490508087600001848154811061232157612321612718565b6000918252602080832090910192909255918252600188019052604090208390555b855486908061235457612354612747565b6001900381819060005260206000200160009055905585600101600086815260200190815260200160002060009055600193505050506111e7565b60009150506111e7565b803573ffffffffffffffffffffffffffffffffffffffff811681146123bd57600080fd5b919050565b7f4e487b7100000000000000000000000000000000000000000000000000000000600052604160045260246000fd5b6000806000806080858703121561240757600080fd5b61241085612399565b935061241e60208601612399565b925060408501359150606085013567ffffffffffffffff8082111561244257600080fd5b818701915087601f83011261245657600080fd5b813581811115612468576124686123c2565b604051601f82017fffffffffffffffffffffffffffffffffffffffffffffffffffffffffffffffe0908116603f011681019083821181831017156124ae576124ae6123c2565b816040528281528a60208487010111156124c757600080fd5b82602086016020830137600060208483010152809550505050505092959194509250565b801515811461052557600080fd5b60006020828403121561250b57600080fd5b813561122a816124eb565b60006020828403121561252857600080fd5b61122a82612399565b6000806040838503121561254457600080fd5b61254d83612399565b946020939093013593505050565b60008060006060848603121561257057600080fd5b61257984612399565b925061258760208501612399565b9150604084013590509250925092565b600080600080608085870312156125ad57600080fd5b6125b685612399565b9350602085013592506125cb60408601612399565b9396929550929360600135925050565b600080604083850312156125ee57600080fd5b6125f783612399565b915061260560208401612399565b90509250929050565b6000806000806080858703121561262457600080fd5b61262d85612399565b966020860135965060408601359560600135945092505050565b60006020828403121561265957600080fd5b5051919050565b7f4e487b7100000000000000000000000000000000000000000000000000000000600052601160045260246000fd5b6000817fffffffffffffffffffffffffffffffffffffffffffffffffffffffffffffffff04831182151516156126c7576126c7612660565b500290565b600082198211156126df576126df612660565b500190565b6000828210156126f6576126f6612660565b500390565b60006020828403121561270d57600080fd5b815161122a816124eb565b7f4e487b7100000000000000000000000000000000000000000000000000000000600052603260045260246000fd5b7f4e487b7100000000000000000000000000000000000000000000000000000000600052603160045260246000fdfea26469706673582212203fdc810010c214e0f4a77f1192ea6edd8aca39b12bebf64825181fbc141ab74864736f6c634300080c0033",
  "linkReferences": {},
  "deployedLinkReferences": {}
}