{
  "_format": "hh-sol-artifact-1",
  "contractName": "NFTBuyOffers",
  "sourceName": "contracts/NFTBuyOffers.sol",
  "abi": [
    {
      "inputs": [
        {
          "internalType": "uint256",
          "name": "maxDays_",
          "type": "uint256"
        },
        {
          "internalType": "address",
          "name": "collectionManager_",
          "type": "address"
        },
        {
          "internalType": "address",
          "name": "salesService_",
          "type": "address"
        },
        {
          "internalType": "address",
          "name": "trustedForwarder_",
          "type": "address"
        }
      ],
      "stateMutability": "nonpayable",
      "type": "constructor"
    },
    {
      "anonymous": false,
      "inputs": [
        {
          "indexed": true,
          "internalType": "address",
          "name": "bidder",
          "type": "address"
        },
        {
          "indexed": true,
          "internalType": "address",
          "name": "collectionAddress",
          "type": "address"
        },
        {
          "indexed": true,
          "internalType": "uint256",
          "name": "tokenId",
          "type": "uint256"
        },
        {
          "indexed": false,
          "internalType": "uint256",
          "name": "bid",
          "type": "uint256"
        }
      ],
      "name": "OfferCreated",
      "type": "event"
    },
    {
      "anonymous": false,
      "inputs": [
        {
          "indexed": true,
          "internalType": "address",
          "name": "bidder",
          "type": "address"
        },
        {
          "indexed": true,
          "internalType": "address",
          "name": "collectionAddress",
          "type": "address"
        },
        {
          "indexed": true,
          "internalType": "uint256",
          "name": "tokenId",
          "type": "uint256"
        },
        {
          "indexed": false,
          "internalType": "uint256",
          "name": "bid",
          "type": "uint256"
        },
        {
          "indexed": false,
          "internalType": "bool",
          "name": "accepted",
          "type": "bool"
        }
      ],
      "name": "OfferStatusChanged",
      "type": "event"
    },
    {
      "anonymous": false,
      "inputs": [
        {
          "indexed": true,
          "internalType": "address",
          "name": "previousOwner",
          "type": "address"
        },
        {
          "indexed": true,
          "internalType": "address",
          "name": "newOwner",
          "type": "address"
        }
      ],
      "name": "OwnershipTransferred",
      "type": "event"
    },
    {
      "anonymous": false,
      "inputs": [
        {
          "indexed": false,
          "internalType": "address",
          "name": "account",
          "type": "address"
        }
      ],
      "name": "Paused",
      "type": "event"
    },
    {
      "anonymous": false,
      "inputs": [
        {
          "indexed": false,
          "internalType": "address",
          "name": "account",
          "type": "address"
        }
      ],
      "name": "Unpaused",
      "type": "event"
    },
    {
      "inputs": [
        {
          "internalType": "address",
          "name": "collectionAddress_",
          "type": "address"
        },
        {
          "internalType": "uint256",
          "name": "tokenId_",
          "type": "uint256"
        },
        {
          "internalType": "address",
          "name": "bidder_",
          "type": "address"
        }
      ],
      "name": "acceptOffer",
      "outputs": [],
      "stateMutability": "nonpayable",
      "type": "function"
    },
    {
      "inputs": [
        {
          "internalType": "address",
          "name": "collectionAddress_",
          "type": "address"
        },
        {
          "internalType": "uint256",
          "name": "tokenId_",
          "type": "uint256"
        }
      ],
      "name": "cancelOffer",
      "outputs": [],
      "stateMutability": "nonpayable",
      "type": "function"
    },
    {
      "inputs": [
        {
          "internalType": "address",
          "name": "collectionAddress_",
          "type": "address"
        },
        {
          "internalType": "uint256",
          "name": "tokenId_",
          "type": "uint256"
        },
        {
          "internalType": "address",
          "name": "erc20Address_",
          "type": "address"
        },
        {
          "internalType": "uint256",
          "name": "amountIn_",
          "type": "uint256"
        }
      ],
      "name": "createOffer",
      "outputs": [],
      "stateMutability": "payable",
      "type": "function"
    },
    {
      "inputs": [
        {
          "internalType": "address",
          "name": "collectionAddress_",
          "type": "address"
        },
        {
          "internalType": "uint256",
          "name": "tokenId_",
          "type": "uint256"
        }
      ],
      "name": "getAllOffersCount",
      "outputs": [
        {
          "internalType": "uint256",
          "name": "",
          "type": "uint256"
        }
      ],
      "stateMutability": "view",
      "type": "function"
    },
    {
      "inputs": [
        {
          "internalType": "address",
          "name": "user_",
          "type": "address"
        },
        {
          "internalType": "address",
          "name": "collectionAddress_",
          "type": "address"
        }
      ],
      "name": "getUserOffersCount",
      "outputs": [
        {
          "internalType": "uint256",
          "name": "",
          "type": "uint256"
        }
      ],
      "stateMutability": "view",
      "type": "function"
    },
    {
      "inputs": [
        {
          "internalType": "address",
          "name": "forwarder",
          "type": "address"
        }
      ],
      "name": "isTrustedForwarder",
      "outputs": [
        {
          "internalType": "bool",
          "name": "",
          "type": "bool"
        }
      ],
      "stateMutability": "view",
      "type": "function"
    },
    {
      "inputs": [
        {
          "internalType": "address",
          "name": "collectionAddress_",
          "type": "address"
        },
        {
          "internalType": "uint256",
          "name": "tokenId_",
          "type": "uint256"
        },
        {
          "internalType": "uint256",
          "name": "index_",
          "type": "uint256"
        }
      ],
      "name": "offerByIndex",
      "outputs": [
        {
          "internalType": "address",
          "name": "user",
          "type": "address"
        },
        {
          "internalType": "uint256",
          "name": "bid",
          "type": "uint256"
        }
      ],
      "stateMutability": "view",
      "type": "function"
    },
    {
      "inputs": [
        {
          "internalType": "address",
          "name": "user_",
          "type": "address"
        },
        {
          "internalType": "address",
          "name": "collectionAddress_",
          "type": "address"
        },
        {
          "internalType": "uint256",
          "name": "index_",
          "type": "uint256"
        }
      ],
      "name": "offerOfUserByIndex",
      "outputs": [
        {
          "internalType": "uint256",
          "name": "bid",
          "type": "uint256"
        }
      ],
      "stateMutability": "view",
      "type": "function"
    },
    {
      "inputs": [
        {
          "internalType": "address",
          "name": "",
          "type": "address"
        },
        {
          "internalType": "address",
          "name": "",
          "type": "address"
        },
        {
          "internalType": "uint256",
          "name": "",
          "type": "uint256"
        },
        {
          "internalType": "bytes",
          "name": "",
          "type": "bytes"
        }
      ],
      "name": "onERC721Received",
      "outputs": [
        {
          "internalType": "bytes4",
          "name": "",
          "type": "bytes4"
        }
      ],
      "stateMutability": "nonpayable",
      "type": "function"
    },
    {
      "inputs": [],
      "name": "owner",
      "outputs": [
        {
          "internalType": "address",
          "name": "",
          "type": "address"
        }
      ],
      "stateMutability": "view",
      "type": "function"
    },
    {
      "inputs": [],
      "name": "paused",
      "outputs": [
        {
          "internalType": "bool",
          "name": "",
          "type": "bool"
        }
      ],
      "stateMutability": "view",
      "type": "function"
    },
    {
      "inputs": [],
      "name": "renounceOwnership",
      "outputs": [],
      "stateMutability": "nonpayable",
      "type": "function"
    },
    {
      "inputs": [
        {
          "internalType": "bool",
          "name": "status_",
          "type": "bool"
        }
      ],
      "name": "setPanicSwitch",
      "outputs": [],
      "stateMutability": "nonpayable",
      "type": "function"
    },
    {
      "inputs": [
        {
          "internalType": "address",
          "name": "newOwner",
          "type": "address"
        }
      ],
      "name": "transferOwnership",
      "outputs": [],
      "stateMutability": "nonpayable",
      "type": "function"
    }
  ],
  "bytecode": "0x60a06040523480156200001157600080fd5b506040516200208438038062002084833981016040819052620000349162000168565b6001600160a01b03811660805260016000556200005a62000054620000a0565b620000bc565b506001805460ff60a01b19169055600592909255600680546001600160a01b039283166001600160a01b03199182161790915560078054929093169116179055620001bc565b6000620000b76200010e60201b6200139f1760201c565b905090565b600180546001600160a01b038381166001600160a01b0319831681179093556040519116919082907f8be0079c531659141344cd1fd0a4f28419497f9722a3daafe3b4186f6b6457e090600090a35050565b6080516000906001600160a01b031633141562000132575060131936013560601c90565b620000b76200014760201b620014141760201c565b3390565b80516001600160a01b03811681146200016357600080fd5b919050565b600080600080608085870312156200017f57600080fd5b8451935062000191602086016200014b565b9250620001a1604086016200014b565b9150620001b1606086016200014b565b905092959194509250565b608051611ea5620001df6000396000818161025501526113a30152611ea56000f3fe6080604052600436106100dd5760003560e01c80635c975abb1161007f5780638da5cb5b116100595780638da5cb5b14610307578063ed6cc33e1461033c578063f24915281461035c578063f2fde38b1461036f57600080fd5b80635c975abb146102a257806360d47bae146102d2578063715018a6146102f257600080fd5b80631c9d981f116100bb5780631c9d981f146101ca5780633bbb2806146101f85780634e03dd2c14610218578063572b6c051461023857600080fd5b8063058a56ac146100e2578063090f941b14610104578063150b7a0214610155575b600080fd5b3480156100ee57600080fd5b506101026100fd366004611adb565b61038f565b005b34801561011057600080fd5b5061012461011f366004611b05565b61064a565b6040805173ffffffffffffffffffffffffffffffffffffffff90931683526020830191909152015b60405180910390f35b34801561016157600080fd5b50610199610170366004611b67565b7f150b7a0200000000000000000000000000000000000000000000000000000000949350505050565b6040517fffffffff00000000000000000000000000000000000000000000000000000000909116815260200161014c565b3480156101d657600080fd5b506101ea6101e5366004611adb565b61076f565b60405190815260200161014c565b34801561020457600080fd5b50610102610213366004611c61565b6107b1565b34801561022457600080fd5b50610102610233366004611cab565b610b4c565b34801561024457600080fd5b50610292610253366004611ccf565b7f000000000000000000000000000000000000000000000000000000000000000073ffffffffffffffffffffffffffffffffffffffff90811691161490565b604051901515815260200161014c565b3480156102ae57600080fd5b5060015474010000000000000000000000000000000000000000900460ff16610292565b3480156102de57600080fd5b506101ea6102ed366004611cea565b610c1f565b3480156102fe57600080fd5b50610102610c5c565b34801561031357600080fd5b5060015460405173ffffffffffffffffffffffffffffffffffffffff909116815260200161014c565b34801561034857600080fd5b506101ea610357366004611d1d565b610d22565b61010261036a366004611d59565b610e47565b34801561037b57600080fd5b5061010261038a366004611ccf565b611239565b60026000541415610401576040517f08c379a000000000000000000000000000000000000000000000000000000000815260206004820152601f60248201527f5265656e7472616e637947756172643a207265656e7472616e742063616c6c0060448201526064015b60405180910390fd5b60026000818155610452918391610416611418565b73ffffffffffffffffffffffffffffffffffffffff90811682526020808301939093526040918201600090812091881681529252902090611422565b6104b8576040517f08c379a000000000000000000000000000000000000000000000000000000000815260206004820152601560248201527f4e6f20616374697665206f6666657220666f756e64000000000000000000000060448201526064016103f8565b6000600360006104c6611418565b73ffffffffffffffffffffffffffffffffffffffff9081168252602080830193909352604091820160009081209187168152908352818120858252909252902054905061051b610514611418565b848461143a565b818373ffffffffffffffffffffffffffffffffffffffff1661053b611418565b604080518581526000602082015273ffffffffffffffffffffffffffffffffffffffff92909216917f5cc4c49ca49aeeb2e13cb68ae1bab408b936259c37b0ebaa40a979c8952c0921910160405180910390a460075473ffffffffffffffffffffffffffffffffffffffff16630fa2f03b6105b4611418565b6040517fffffffff0000000000000000000000000000000000000000000000000000000060e084901b16815273ffffffffffffffffffffffffffffffffffffffff90911660048201526024810184905260006044820152606401600060405180830381600087803b15801561062857600080fd5b505af115801561063c573d6000803e3d6000fd5b505060016000555050505050565b73ffffffffffffffffffffffffffffffffffffffff8316600090815260046020908152604080832085845290915281208190610685906114d8565b83106106ed576040517f08c379a000000000000000000000000000000000000000000000000000000000815260206004820152601760248201527f42696420696e646578206f7574206f6620626f756e647300000000000000000060448201526064016103f8565b73ffffffffffffffffffffffffffffffffffffffff85166000908152600460209081526040808320878452909152902061072790846114e2565b73ffffffffffffffffffffffffffffffffffffffff8082166000908152600360209081526040808320938a168352928152828220888352905220549092509050935093915050565b73ffffffffffffffffffffffffffffffffffffffff8216600090815260046020908152604080832084845290915281206107a8906114d8565b90505b92915050565b6002600054141561081e576040517f08c379a000000000000000000000000000000000000000000000000000000000815260206004820152601f60248201527f5265656e7472616e637947756172643a207265656e7472616e742063616c6c0060448201526064016103f8565b6002600081815573ffffffffffffffffffffffffffffffffffffffff808416825260209283526040808320918716835292522061085b9083611422565b6108c1576040517f08c379a000000000000000000000000000000000000000000000000000000000815260206004820152601560248201527f4e6f20616374697665206f6666657220666f756e64000000000000000000000060448201526064016103f8565b73ffffffffffffffffffffffffffffffffffffffff8181166000818152600360209081526040808320948816808452948252808320878452825291829020548251818152600192810192909252938693909290917f5cc4c49ca49aeeb2e13cb68ae1bab408b936259c37b0ebaa40a979c8952c0921910160405180910390a461094b82858561143a565b60075473ffffffffffffffffffffffffffffffffffffffff16630fa2f03b610971611418565b6006546040517fb88c914800000000000000000000000000000000000000000000000000000000815273ffffffffffffffffffffffffffffffffffffffff89811660048301528692169063b88c914890602401602060405180830381865afa1580156109e1573d6000803e3d6000fd5b505050506040513d601f19601f82011682018060405250810190610a059190611d9d565b6040517fffffffff0000000000000000000000000000000000000000000000000000000060e086901b16815273ffffffffffffffffffffffffffffffffffffffff909316600484015260248301919091526044820152606401600060405180830381600087803b158015610a7857600080fd5b505af1158015610a8c573d6000803e3d6000fd5b505050508373ffffffffffffffffffffffffffffffffffffffff166342842e0e610ab4611418565b6040517fffffffff0000000000000000000000000000000000000000000000000000000060e084901b16815273ffffffffffffffffffffffffffffffffffffffff9182166004820152908516602482015260448101869052606401600060405180830381600087803b158015610b2957600080fd5b505af1158015610b3d573d6000803e3d6000fd5b50506001600055505050505050565b610b54611418565b73ffffffffffffffffffffffffffffffffffffffff16610b8960015473ffffffffffffffffffffffffffffffffffffffff1690565b73ffffffffffffffffffffffffffffffffffffffff1614610c06576040517f08c379a000000000000000000000000000000000000000000000000000000000815260206004820181905260248201527f4f776e61626c653a2063616c6c6572206973206e6f7420746865206f776e657260448201526064016103f8565b8015610c1757610c146114ee565b50565b610c14611605565b73ffffffffffffffffffffffffffffffffffffffff808316600090815260026020908152604080832093851683529290529081206107a8906114d8565b610c64611418565b73ffffffffffffffffffffffffffffffffffffffff16610c9960015473ffffffffffffffffffffffffffffffffffffffff1690565b73ffffffffffffffffffffffffffffffffffffffff1614610d16576040517f08c379a000000000000000000000000000000000000000000000000000000000815260206004820181905260248201527f4f776e61626c653a2063616c6c6572206973206e6f7420746865206f776e657260448201526064016103f8565b610d2060006116da565b565b73ffffffffffffffffffffffffffffffffffffffff80841660009081526002602090815260408083209386168352929052908120610d5f906114d8565b8210610dc7576040517f08c379a000000000000000000000000000000000000000000000000000000000815260206004820152601c60248201527f557365722042696420696e646578206f7574206f6620626f756e64730000000060448201526064016103f8565b73ffffffffffffffffffffffffffffffffffffffff80851660009081526002602090815260408083209387168352929052908120610e0590846114e2565b73ffffffffffffffffffffffffffffffffffffffff95861660009081526003602090815260408083209790981682529586528681209181529452505050205490565b60015474010000000000000000000000000000000000000000900460ff1615610ecc576040517f08c379a000000000000000000000000000000000000000000000000000000000815260206004820152601060248201527f5061757361626c653a207061757365640000000000000000000000000000000060448201526064016103f8565b610ed584611751565b610f218360026000610ee5611418565b73ffffffffffffffffffffffffffffffffffffffff908116825260208083019390935260409182016000908120918a1681529252902090611422565b15610fae576040517f08c379a000000000000000000000000000000000000000000000000000000000815260206004820152602760248201527f596f7520616c7265616479206861766520616e206f6666657220666f7220746860448201527f6973206974656d0000000000000000000000000000000000000000000000000060648201526084016103f8565b6000811180610fbd5750600034115b611023576040517f08c379a000000000000000000000000000000000000000000000000000000000815260206004820152601a60248201527f426964206d757374206265206174206c6561737420312077656900000000000060448201526064016103f8565b600034156110d5576007546040517f25d3783d00000000000000000000000000000000000000000000000000000000815230600482015234602482018190526000604483015273ffffffffffffffffffffffffffffffffffffffff909216916325d3783d9160640160206040518083038185885af11580156110a9573d6000803e3d6000fd5b50505050506040513d601f19601f820116820180604052508101906110ce9190611d9d565b90506111b0565b60075473ffffffffffffffffffffffffffffffffffffffff166392cddeb96110fb611418565b6040517fffffffff0000000000000000000000000000000000000000000000000000000060e084901b16815273ffffffffffffffffffffffffffffffffffffffff918216600482015230602482015290861660448201526064810185905260848101859052600060a482015260c4016020604051808303816000875af1158015611189573d6000803e3d6000fd5b505050506040513d601f19601f820116820180604052508101906111ad9190611d9d565b90505b6111c36111bb611418565b86868461184b565b838573ffffffffffffffffffffffffffffffffffffffff166111e3611418565b73ffffffffffffffffffffffffffffffffffffffff167f1e1a944902b7d587d9352b556127d1316831a4c829cfc46cc2fcb10c8ab538228460405161122a91815260200190565b60405180910390a45050505050565b611241611418565b73ffffffffffffffffffffffffffffffffffffffff1661127660015473ffffffffffffffffffffffffffffffffffffffff1690565b73ffffffffffffffffffffffffffffffffffffffff16146112f3576040517f08c379a000000000000000000000000000000000000000000000000000000000815260206004820181905260248201527f4f776e61626c653a2063616c6c6572206973206e6f7420746865206f776e657260448201526064016103f8565b73ffffffffffffffffffffffffffffffffffffffff8116611396576040517f08c379a000000000000000000000000000000000000000000000000000000000815260206004820152602660248201527f4f776e61626c653a206e6577206f776e657220697320746865207a65726f206160448201527f646472657373000000000000000000000000000000000000000000000000000060648201526084016103f8565b610c14816116da565b60007f000000000000000000000000000000000000000000000000000000000000000073ffffffffffffffffffffffffffffffffffffffff1633141561140a57507fffffffffffffffffffffffffffffffffffffffffffffffffffffffffffffffec36013560601c90565b503390565b905090565b3390565b600061140f61139f565b600081815260018301602052604081205415156107a8565b73ffffffffffffffffffffffffffffffffffffffff808416600081815260036020908152604080832094871680845294825280832086845282528083208390559282526002815282822093825292909252902061149790826118ea565b5073ffffffffffffffffffffffffffffffffffffffff8216600090815260046020908152604080832084845290915290206114d290846118f6565b50505050565b60006107ab825490565b60006107a88383611918565b60015474010000000000000000000000000000000000000000900460ff1615611573576040517f08c379a000000000000000000000000000000000000000000000000000000000815260206004820152601060248201527f5061757361626c653a207061757365640000000000000000000000000000000060448201526064016103f8565b600180547fffffffffffffffffffffff00ffffffffffffffffffffffffffffffffffffffff16740100000000000000000000000000000000000000001790557f62e78cea01bee320cd4e420270b5ea74000d11b0c9f74754ebdbfc544b05a2586115db611418565b60405173ffffffffffffffffffffffffffffffffffffffff909116815260200160405180910390a1565b60015474010000000000000000000000000000000000000000900460ff16611689576040517f08c379a000000000000000000000000000000000000000000000000000000000815260206004820152601460248201527f5061757361626c653a206e6f742070617573656400000000000000000000000060448201526064016103f8565b600180547fffffffffffffffffffffff00ffffffffffffffffffffffffffffffffffffffff1690557f5db9ee0a495bf2e6ff9c91a7834c1ba4fdd244a5e8aa4e537bd38aeae4b073aa6115db611418565b6001805473ffffffffffffffffffffffffffffffffffffffff8381167fffffffffffffffffffffffff0000000000000000000000000000000000000000831681179093556040519116919082907f8be0079c531659141344cd1fd0a4f28419497f9722a3daafe3b4186f6b6457e090600090a35050565b6006546040517f8214ff3e00000000000000000000000000000000000000000000000000000000815273ffffffffffffffffffffffffffffffffffffffff838116600483015290911690638214ff3e90602401602060405180830381865afa1580156117c1573d6000803e3d6000fd5b505050506040513d601f19601f820116820180604052508101906117e59190611db6565b610c14576040517f08c379a000000000000000000000000000000000000000000000000000000000815260206004820152601b60248201527f436f6e7472616374206973206e6f742077686974656c6973746564000000000060448201526064016103f8565b73ffffffffffffffffffffffffffffffffffffffff80851660008181526003602090815260408083209488168084529482528083208784528252808320869055928252600281528282209382529290925290206118a89083611942565b5073ffffffffffffffffffffffffffffffffffffffff8316600090815260046020908152604080832085845290915290206118e3908561194e565b5050505050565b60006107a88383611970565b60006107a88373ffffffffffffffffffffffffffffffffffffffff8416611970565b600082600001828154811061192f5761192f611dd3565b9060005260206000200154905092915050565b60006107a88383611a63565b60006107a88373ffffffffffffffffffffffffffffffffffffffff8416611a63565b60008181526001830160205260408120548015611a59576000611994600183611e02565b85549091506000906119a890600190611e02565b9050818114611a0d5760008660000182815481106119c8576119c8611dd3565b90600052602060002001549050808760000184815481106119eb576119eb611dd3565b6000918252602080832090910192909255918252600188019052604090208390555b8554869080611a1e57611a1e611e40565b6001900381819060005260206000200160009055905585600101600086815260200190815260200160002060009055600193505050506107ab565b60009150506107ab565b6000818152600183016020526040812054611aaa575081546001818101845560008481526020808220909301849055845484825282860190935260409020919091556107ab565b5060006107ab565b803573ffffffffffffffffffffffffffffffffffffffff81168114611ad657600080fd5b919050565b60008060408385031215611aee57600080fd5b611af783611ab2565b946020939093013593505050565b600080600060608486031215611b1a57600080fd5b611b2384611ab2565b95602085013595506040909401359392505050565b7f4e487b7100000000000000000000000000000000000000000000000000000000600052604160045260246000fd5b60008060008060808587031215611b7d57600080fd5b611b8685611ab2565b9350611b9460208601611ab2565b925060408501359150606085013567ffffffffffffffff80821115611bb857600080fd5b818701915087601f830112611bcc57600080fd5b813581811115611bde57611bde611b38565b604051601f82017fffffffffffffffffffffffffffffffffffffffffffffffffffffffffffffffe0908116603f01168101908382118183101715611c2457611c24611b38565b816040528281528a6020848701011115611c3d57600080fd5b82602086016020830137600060208483010152809550505050505092959194509250565b600080600060608486031215611c7657600080fd5b611c7f84611ab2565b925060208401359150611c9460408501611ab2565b90509250925092565b8015158114610c1457600080fd5b600060208284031215611cbd57600080fd5b8135611cc881611c9d565b9392505050565b600060208284031215611ce157600080fd5b6107a882611ab2565b60008060408385031215611cfd57600080fd5b611d0683611ab2565b9150611d1460208401611ab2565b90509250929050565b600080600060608486031215611d3257600080fd5b611d3b84611ab2565b9250611d4960208501611ab2565b9150604084013590509250925092565b60008060008060808587031215611d6f57600080fd5b611d7885611ab2565b935060208501359250611d8d60408601611ab2565b9396929550929360600135925050565b600060208284031215611daf57600080fd5b5051919050565b600060208284031215611dc857600080fd5b8151611cc881611c9d565b7f4e487b7100000000000000000000000000000000000000000000000000000000600052603260045260246000fd5b600082821015611e3b577f4e487b7100000000000000000000000000000000000000000000000000000000600052601160045260246000fd5b500390565b7f4e487b7100000000000000000000000000000000000000000000000000000000600052603160045260246000fdfea264697066735822122060974f0eb9726b94d16b3c25fbf2a9b8cdf508c43f25845462c2d11eb703b4cb64736f6c634300080c0033",
  "linkReferences": {},
  "deployedLinkReferences": {}
}