{
  "_format": "hh-sol-artifact-1",
  "contractName": "NFTCollectionManager",
  "sourceName": "contracts/NFTCollectionManager.sol",
  "abi": [
    {
      "inputs": [],
      "stateMutability": "nonpayable",
      "type": "constructor"
    },
    {
      "anonymous": false,
      "inputs": [
        {
          "indexed": true,
          "internalType": "address",
          "name": "previousOwner",
          "type": "address"
        },
        {
          "indexed": true,
          "internalType": "address",
          "name": "newOwner",
          "type": "address"
        }
      ],
      "name": "OwnershipTransferred",
      "type": "event"
    },
    {
      "inputs": [
        {
          "internalType": "address",
          "name": "contractAddress_",
          "type": "address"
        },
        {
          "internalType": "bool",
          "name": "status_",
          "type": "bool"
        }
      ],
      "name": "addWhitelistedCollection",
      "outputs": [],
      "stateMutability": "nonpayable",
      "type": "function"
    },
    {
      "inputs": [
        {
          "internalType": "uint256",
          "name": "index_",
          "type": "uint256"
        }
      ],
      "name": "collectionByIndex",
      "outputs": [
        {
          "internalType": "address",
          "name": "",
          "type": "address"
        }
      ],
      "stateMutability": "view",
      "type": "function"
    },
    {
      "inputs": [],
      "name": "getCollectionsCount",
      "outputs": [
        {
          "internalType": "uint256",
          "name": "",
          "type": "uint256"
        }
      ],
      "stateMutability": "view",
      "type": "function"
    },
    {
      "inputs": [
        {
          "internalType": "address",
          "name": "contractAddress_",
          "type": "address"
        }
      ],
      "name": "getFee",
      "outputs": [
        {
          "internalType": "uint256",
          "name": "",
          "type": "uint256"
        }
      ],
      "stateMutability": "view",
      "type": "function"
    },
    {
      "inputs": [
        {
          "internalType": "address",
          "name": "contractAddress_",
          "type": "address"
        }
      ],
      "name": "getFloorPrice",
      "outputs": [
        {
          "internalType": "uint256",
          "name": "",
          "type": "uint256"
        }
      ],
      "stateMutability": "view",
      "type": "function"
    },
    {
      "inputs": [
        {
          "internalType": "address",
          "name": "contractAddress_",
          "type": "address"
        }
      ],
      "name": "isWhitelistedCollection",
      "outputs": [
        {
          "internalType": "bool",
          "name": "",
          "type": "bool"
        }
      ],
      "stateMutability": "view",
      "type": "function"
    },
    {
      "inputs": [],
      "name": "owner",
      "outputs": [
        {
          "internalType": "address",
          "name": "",
          "type": "address"
        }
      ],
      "stateMutability": "view",
      "type": "function"
    },
    {
      "inputs": [],
      "name": "renounceOwnership",
      "outputs": [],
      "stateMutability": "nonpayable",
      "type": "function"
    },
    {
      "inputs": [
        {
          "internalType": "address",
          "name": "contractAddress_",
          "type": "address"
        },
        {
          "internalType": "uint256",
          "name": "fee_",
          "type": "uint256"
        }
      ],
      "name": "setFee",
      "outputs": [],
      "stateMutability": "nonpayable",
      "type": "function"
    },
    {
      "inputs": [
        {
          "internalType": "address",
          "name": "contractAddress_",
          "type": "address"
        },
        {
          "internalType": "uint256",
          "name": "floorPrice_",
          "type": "uint256"
        }
      ],
      "name": "setFloorPrice",
      "outputs": [],
      "stateMutability": "nonpayable",
      "type": "function"
    },
    {
      "inputs": [
        {
          "internalType": "address",
          "name": "newOwner",
          "type": "address"
        }
      ],
      "name": "transferOwnership",
      "outputs": [],
      "stateMutability": "nonpayable",
      "type": "function"
    }
  ],
  "bytecode": "0x608060405234801561001057600080fd5b5061001a3361001f565b61006f565b600080546001600160a01b038381166001600160a01b0319831681178455604051919092169283917f8be0079c531659141344cd1fd0a4f28419497f9722a3daafe3b4186f6b6457e09190a35050565b610c658061007e6000396000f3fe608060405234801561001057600080fd5b50600436106100c95760003560e01c80638da5cb5b11610081578063d8432fcf1161005b578063d8432fcf14610217578063e55156b51461022a578063f2fde38b1461023d57600080fd5b80638da5cb5b1461018a578063b88c9148146101a8578063c3e214fc146101de57600080fd5b8063715018a6116100b2578063715018a6146100fe57806375a8c25a146101065780638214ff3e1461013e57600080fd5b80630ceff683146100ce5780632a9cec66146100e3575b600080fd5b6100e16100dc366004610b40565b610250565b005b6100eb610429565b6040519081526020015b60405180910390f35b6100e161043a565b610119610114366004610b6a565b6104c7565b60405173ffffffffffffffffffffffffffffffffffffffff90911681526020016100f5565b61017a61014c366004610b83565b73ffffffffffffffffffffffffffffffffffffffff1660009081526003602052604090206002015460ff1690565b60405190151581526020016100f5565b60005473ffffffffffffffffffffffffffffffffffffffff16610119565b6100eb6101b6366004610b83565b73ffffffffffffffffffffffffffffffffffffffff1660009081526003602052604090205490565b6100eb6101ec366004610b83565b73ffffffffffffffffffffffffffffffffffffffff1660009081526003602052604090206001015490565b6100e1610225366004610bac565b6104da565b6100e1610238366004610b40565b6106e4565b6100e161024b366004610b83565b61088f565b60005473ffffffffffffffffffffffffffffffffffffffff1633146102d6576040517f08c379a000000000000000000000000000000000000000000000000000000000815260206004820181905260248201527f4f776e61626c653a2063616c6c6572206973206e6f7420746865206f776e657260448201526064015b60405180910390fd5b6102e16001836109bf565b61036d576040517f08c379a000000000000000000000000000000000000000000000000000000000815260206004820152602960248201527f436f6c6c656374696f6e20646f6573206e6f742065786973747320696e206d6160448201527f726b6574706c616365000000000000000000000000000000000000000000000060648201526084016102cd565b600081116103fd576040517f08c379a000000000000000000000000000000000000000000000000000000000815260206004820152602260248201527f466c6f6f72207072696365206d757374206265206174206c656173742031207760448201527f656900000000000000000000000000000000000000000000000000000000000060648201526084016102cd565b73ffffffffffffffffffffffffffffffffffffffff909116600090815260036020526040902060010155565b600061043560016109f1565b905090565b60005473ffffffffffffffffffffffffffffffffffffffff1633146104bb576040517f08c379a000000000000000000000000000000000000000000000000000000000815260206004820181905260248201527f4f776e61626c653a2063616c6c6572206973206e6f7420746865206f776e657260448201526064016102cd565b6104c560006109fb565b565b60006104d4600183610a70565b92915050565b60005473ffffffffffffffffffffffffffffffffffffffff16331461055b576040517f08c379a000000000000000000000000000000000000000000000000000000000815260206004820181905260248201527f4f776e61626c653a2063616c6c6572206973206e6f7420746865206f776e657260448201526064016102cd565b6040517f01ffc9a70000000000000000000000000000000000000000000000000000000081527f80ac58cd00000000000000000000000000000000000000000000000000000000600482015273ffffffffffffffffffffffffffffffffffffffff8316906301ffc9a790602401602060405180830381865afa1580156105e5573d6000803e3d6000fd5b505050506040513d601f19601f820116820180604052508101906106099190610be3565b61066f576040517f08c379a000000000000000000000000000000000000000000000000000000000815260206004820181905260248201527f41646472657373206973206e6f74204945524337323120636f6d706c69616e7460448201526064016102cd565b61067a6001836109bf565b61068b57610689600183610a7c565b505b73ffffffffffffffffffffffffffffffffffffffff91909116600090815260036020526040902060020180547fffffffffffffffffffffffffffffffffffffffffffffffffffffffffffffff0016911515919091179055565b60005473ffffffffffffffffffffffffffffffffffffffff163314610765576040517f08c379a000000000000000000000000000000000000000000000000000000000815260206004820181905260248201527f4f776e61626c653a2063616c6c6572206973206e6f7420746865206f776e657260448201526064016102cd565b6107706001836109bf565b6107fc576040517f08c379a000000000000000000000000000000000000000000000000000000000815260206004820152602960248201527f436f6c6c656374696f6e20646f6573206e6f742065786973747320696e206d6160448201527f726b6574706c616365000000000000000000000000000000000000000000000060648201526084016102cd565b60338110610866576040517f08c379a000000000000000000000000000000000000000000000000000000000815260206004820181905260248201527f43616e2774207365742066656520686967686572207468616e2035302e30302560448201526064016102cd565b73ffffffffffffffffffffffffffffffffffffffff909116600090815260036020526040902055565b60005473ffffffffffffffffffffffffffffffffffffffff163314610910576040517f08c379a000000000000000000000000000000000000000000000000000000000815260206004820181905260248201527f4f776e61626c653a2063616c6c6572206973206e6f7420746865206f776e657260448201526064016102cd565b73ffffffffffffffffffffffffffffffffffffffff81166109b3576040517f08c379a000000000000000000000000000000000000000000000000000000000815260206004820152602660248201527f4f776e61626c653a206e6577206f776e657220697320746865207a65726f206160448201527f646472657373000000000000000000000000000000000000000000000000000060648201526084016102cd565b6109bc816109fb565b50565b73ffffffffffffffffffffffffffffffffffffffff8116600090815260018301602052604081205415155b9392505050565b60006104d4825490565b6000805473ffffffffffffffffffffffffffffffffffffffff8381167fffffffffffffffffffffffff0000000000000000000000000000000000000000831681178455604051919092169283917f8be0079c531659141344cd1fd0a4f28419497f9722a3daafe3b4186f6b6457e09190a35050565b60006109ea8383610a9e565b60006109ea8373ffffffffffffffffffffffffffffffffffffffff8416610ac8565b6000826000018281548110610ab557610ab5610c00565b9060005260206000200154905092915050565b6000818152600183016020526040812054610b0f575081546001818101845560008481526020808220909301849055845484825282860190935260409020919091556104d4565b5060006104d4565b803573ffffffffffffffffffffffffffffffffffffffff81168114610b3b57600080fd5b919050565b60008060408385031215610b5357600080fd5b610b5c83610b17565b946020939093013593505050565b600060208284031215610b7c57600080fd5b5035919050565b600060208284031215610b9557600080fd5b6109ea82610b17565b80151581146109bc57600080fd5b60008060408385031215610bbf57600080fd5b610bc883610b17565b91506020830135610bd881610b9e565b809150509250929050565b600060208284031215610bf557600080fd5b81516109ea81610b9e565b7f4e487b7100000000000000000000000000000000000000000000000000000000600052603260045260246000fdfea2646970667358221220c546cb6465bbc8ea67107de91cc40f63a68496cbd53334b8f144c013ec5d7b8b64736f6c634300080c0033",
  "linkReferences": {},
  "deployedLinkReferences": {}
}