{
  "_format": "hh-sol-artifact-1",
  "contractName": "NFTMarketplace",
  "sourceName": "contracts/NFTMarketplace.sol",
  "abi": [
    {
      "inputs": [
        {
          "internalType": "address",
          "name": "collectionManager_",
          "type": "address"
        },
        {
          "internalType": "address",
          "name": "salesService_",
          "type": "address"
        },
        {
          "internalType": "address",
          "name": "trustedForwarder_",
          "type": "address"
        }
      ],
      "stateMutability": "nonpayable",
      "type": "constructor"
    },
    {
      "anonymous": false,
      "inputs": [
        {
          "indexed": true,
          "internalType": "address",
          "name": "seller",
          "type": "address"
        },
        {
          "indexed": true,
          "internalType": "address",
          "name": "collectionAddress",
          "type": "address"
        },
        {
          "indexed": true,
          "internalType": "uint256",
          "name": "tokenId",
          "type": "uint256"
        },
        {
          "indexed": false,
          "internalType": "uint256",
          "name": "price",
          "type": "uint256"
        }
      ],
      "name": "ItemCreated",
      "type": "event"
    },
    {
      "anonymous": false,
      "inputs": [
        {
          "indexed": true,
          "internalType": "address",
          "name": "seller",
          "type": "address"
        },
        {
          "indexed": false,
          "internalType": "address",
          "name": "owner",
          "type": "address"
        },
        {
          "indexed": true,
          "internalType": "address",
          "name": "collectionAddress",
          "type": "address"
        },
        {
          "indexed": true,
          "internalType": "uint256",
          "name": "tokenId",
          "type": "uint256"
        },
        {
          "indexed": false,
          "internalType": "uint256",
          "name": "price",
          "type": "uint256"
        }
      ],
      "name": "ItemTransferred",
      "type": "event"
    },
    {
      "anonymous": false,
      "inputs": [
        {
          "indexed": true,
          "internalType": "address",
          "name": "seller",
          "type": "address"
        },
        {
          "indexed": true,
          "internalType": "address",
          "name": "collectionAddress",
          "type": "address"
        },
        {
          "indexed": true,
          "internalType": "uint256",
          "name": "tokenId",
          "type": "uint256"
        },
        {
          "indexed": false,
          "internalType": "uint256",
          "name": "price",
          "type": "uint256"
        }
      ],
      "name": "ItemUpdated",
      "type": "event"
    },
    {
      "anonymous": false,
      "inputs": [
        {
          "indexed": true,
          "internalType": "address",
          "name": "previousOwner",
          "type": "address"
        },
        {
          "indexed": true,
          "internalType": "address",
          "name": "newOwner",
          "type": "address"
        }
      ],
      "name": "OwnershipTransferred",
      "type": "event"
    },
    {
      "anonymous": false,
      "inputs": [
        {
          "indexed": false,
          "internalType": "address",
          "name": "account",
          "type": "address"
        }
      ],
      "name": "Paused",
      "type": "event"
    },
    {
      "anonymous": false,
      "inputs": [
        {
          "indexed": false,
          "internalType": "address",
          "name": "account",
          "type": "address"
        }
      ],
      "name": "Unpaused",
      "type": "event"
    },
    {
      "inputs": [
        {
          "internalType": "address",
          "name": "collectionAddress_",
          "type": "address"
        },
        {
          "internalType": "uint256",
          "name": "tokenId_",
          "type": "uint256"
        },
        {
          "internalType": "address",
          "name": "erc20Address_",
          "type": "address"
        },
        {
          "internalType": "uint256",
          "name": "amountIn_",
          "type": "uint256"
        }
      ],
      "name": "buy",
      "outputs": [],
      "stateMutability": "payable",
      "type": "function"
    },
    {
      "inputs": [
        {
          "internalType": "address",
          "name": "collectionAddress_",
          "type": "address"
        },
        {
          "internalType": "uint256",
          "name": "tokenId_",
          "type": "uint256"
        }
      ],
      "name": "cancelItem",
      "outputs": [],
      "stateMutability": "nonpayable",
      "type": "function"
    },
    {
      "inputs": [
        {
          "internalType": "address",
          "name": "collectionAddress_",
          "type": "address"
        },
        {
          "internalType": "uint256",
          "name": "tokenId_",
          "type": "uint256"
        },
        {
          "internalType": "uint256",
          "name": "price_",
          "type": "uint256"
        }
      ],
      "name": "createItem",
      "outputs": [],
      "stateMutability": "nonpayable",
      "type": "function"
    },
    {
      "inputs": [
        {
          "internalType": "address",
          "name": "collectionAddress_",
          "type": "address"
        }
      ],
      "name": "getAllItemsCount",
      "outputs": [
        {
          "internalType": "uint256",
          "name": "",
          "type": "uint256"
        }
      ],
      "stateMutability": "view",
      "type": "function"
    },
    {
      "inputs": [
        {
          "internalType": "address",
          "name": "user_",
          "type": "address"
        },
        {
          "internalType": "address",
          "name": "collectionAddress_",
          "type": "address"
        }
      ],
      "name": "getUserItemsCount",
      "outputs": [
        {
          "internalType": "uint256",
          "name": "",
          "type": "uint256"
        }
      ],
      "stateMutability": "view",
      "type": "function"
    },
    {
      "inputs": [
        {
          "internalType": "address",
          "name": "forwarder",
          "type": "address"
        }
      ],
      "name": "isTrustedForwarder",
      "outputs": [
        {
          "internalType": "bool",
          "name": "",
          "type": "bool"
        }
      ],
      "stateMutability": "view",
      "type": "function"
    },
    {
      "inputs": [
        {
          "internalType": "address",
          "name": "collectionAddress_",
          "type": "address"
        },
        {
          "internalType": "uint256",
          "name": "index_",
          "type": "uint256"
        }
      ],
      "name": "itemByIndex",
      "outputs": [
        {
          "internalType": "address",
          "name": "seller",
          "type": "address"
        },
        {
          "internalType": "uint256",
          "name": "price",
          "type": "uint256"
        },
        {
          "internalType": "address",
          "name": "collectionAddress",
          "type": "address"
        },
        {
          "internalType": "uint256",
          "name": "tokenId",
          "type": "uint256"
        }
      ],
      "stateMutability": "view",
      "type": "function"
    },
    {
      "inputs": [
        {
          "internalType": "address",
          "name": "user_",
          "type": "address"
        },
        {
          "internalType": "address",
          "name": "collectionAddress_",
          "type": "address"
        },
        {
          "internalType": "uint256",
          "name": "index_",
          "type": "uint256"
        }
      ],
      "name": "itemOfUserByIndex",
      "outputs": [
        {
          "internalType": "address",
          "name": "seller",
          "type": "address"
        },
        {
          "internalType": "uint256",
          "name": "price",
          "type": "uint256"
        },
        {
          "internalType": "address",
          "name": "collectionAddress",
          "type": "address"
        },
        {
          "internalType": "uint256",
          "name": "tokenId",
          "type": "uint256"
        }
      ],
      "stateMutability": "view",
      "type": "function"
    },
    {
      "inputs": [
        {
          "internalType": "address",
          "name": "",
          "type": "address"
        },
        {
          "internalType": "uint256",
          "name": "",
          "type": "uint256"
        }
      ],
      "name": "items",
      "outputs": [
        {
          "internalType": "address",
          "name": "seller",
          "type": "address"
        },
        {
          "internalType": "uint256",
          "name": "price",
          "type": "uint256"
        }
      ],
      "stateMutability": "view",
      "type": "function"
    },
    {
      "inputs": [
        {
          "internalType": "address",
          "name": "",
          "type": "address"
        },
        {
          "internalType": "address",
          "name": "",
          "type": "address"
        },
        {
          "internalType": "uint256",
          "name": "",
          "type": "uint256"
        },
        {
          "internalType": "bytes",
          "name": "",
          "type": "bytes"
        }
      ],
      "name": "onERC721Received",
      "outputs": [
        {
          "internalType": "bytes4",
          "name": "",
          "type": "bytes4"
        }
      ],
      "stateMutability": "nonpayable",
      "type": "function"
    },
    {
      "inputs": [],
      "name": "owner",
      "outputs": [
        {
          "internalType": "address",
          "name": "",
          "type": "address"
        }
      ],
      "stateMutability": "view",
      "type": "function"
    },
    {
      "inputs": [],
      "name": "paused",
      "outputs": [
        {
          "internalType": "bool",
          "name": "",
          "type": "bool"
        }
      ],
      "stateMutability": "view",
      "type": "function"
    },
    {
      "inputs": [],
      "name": "renounceOwnership",
      "outputs": [],
      "stateMutability": "nonpayable",
      "type": "function"
    },
    {
      "inputs": [
        {
          "internalType": "bool",
          "name": "status_",
          "type": "bool"
        }
      ],
      "name": "setPanicSwitch",
      "outputs": [],
      "stateMutability": "nonpayable",
      "type": "function"
    },
    {
      "inputs": [
        {
          "internalType": "address",
          "name": "newOwner",
          "type": "address"
        }
      ],
      "name": "transferOwnership",
      "outputs": [],
      "stateMutability": "nonpayable",
      "type": "function"
    },
    {
      "inputs": [
        {
          "internalType": "address",
          "name": "collectionAddress_",
          "type": "address"
        },
        {
          "internalType": "uint256",
          "name": "tokenId_",
          "type": "uint256"
        },
        {
          "internalType": "uint256",
          "name": "price_",
          "type": "uint256"
        }
      ],
      "name": "updateItem",
      "outputs": [],
      "stateMutability": "nonpayable",
      "type": "function"
    }
  ],
  "bytecode": "0x60a06040523480156200001157600080fd5b50604051620023df380380620023df833981016040819052620000349162000162565b6001600160a01b03811660805260016000556200005a620000546200009a565b620000b6565b506001805460ff60a01b19169055600680546001600160a01b039384166001600160a01b03199182161790915560078054929093169116179055620001ac565b6000620000b16200010860201b6200157a1760201c565b905090565b600180546001600160a01b038381166001600160a01b0319831681179093556040519116919082907f8be0079c531659141344cd1fd0a4f28419497f9722a3daafe3b4186f6b6457e090600090a35050565b6080516000906001600160a01b03163314156200012c575060131936013560601c90565b620000b16200014160201b620015ef1760201c565b3390565b80516001600160a01b03811681146200015d57600080fd5b919050565b6000806000606084860312156200017857600080fd5b620001838462000145565b9250620001936020850162000145565b9150620001a36040850162000145565b90509250925092565b608051612210620001cf600039600081816101b1015261157e01526122106000f3fe6080604052600436106100f35760003560e01c8063781c1f1d1161008a578063b3ffb76011610059578063b3ffb760146103de578063be34ecf2146103f1578063eb1fed8f1461041f578063f2fde38b1461043f57600080fd5b8063781c1f1d146103495780638da5cb5b146103695780638f6d40d21461039e578063aae61ba7146103be57600080fd5b80635c80a435116100c65780635c80a4351461021e5780635c975abb146102a25780636c298670146102d2578063715018a61461033457600080fd5b8063150b7a02146100f85780634e03dd2c14610172578063572b6c051461019457806357baf0fb146101fe575b600080fd5b34801561010457600080fd5b5061013c610113366004611eb8565b7f150b7a0200000000000000000000000000000000000000000000000000000000949350505050565b6040517fffffffff0000000000000000000000000000000000000000000000000000000090911681526020015b60405180910390f35b34801561017e57600080fd5b5061019261018d366004611fc0565b61045f565b005b3480156101a057600080fd5b506101ee6101af366004611fdd565b7f000000000000000000000000000000000000000000000000000000000000000073ffffffffffffffffffffffffffffffffffffffff90811691161490565b6040519015158152602001610169565b34801561020a57600080fd5b50610192610219366004611ff8565b610537565b34801561022a57600080fd5b5061027661023936600461202b565b60026020908152600092835260408084209091529082529020805460019091015473ffffffffffffffffffffffffffffffffffffffff9091169082565b6040805173ffffffffffffffffffffffffffffffffffffffff9093168352602083019190915201610169565b3480156102ae57600080fd5b5060015474010000000000000000000000000000000000000000900460ff166101ee565b3480156102de57600080fd5b506102f26102ed366004612055565b6107dc565b604051610169949392919073ffffffffffffffffffffffffffffffffffffffff9485168152602081019390935292166040820152606081019190915260800190565b34801561034057600080fd5b5061019261091f565b34801561035557600080fd5b50610192610364366004611ff8565b6109e5565b34801561037557600080fd5b5060015460405173ffffffffffffffffffffffffffffffffffffffff9091168152602001610169565b3480156103aa57600080fd5b506101926103b936600461202b565b610aed565b3480156103ca57600080fd5b506102f26103d936600461202b565b610ce1565b6101926103ec366004612091565b610e08565b3480156103fd57600080fd5b5061041161040c366004611fdd565b61139c565b604051908152602001610169565b34801561042b57600080fd5b5061041161043a3660046120d5565b6113d0565b34801561044b57600080fd5b5061019261045a366004611fdd565b611414565b6104676115f3565b73ffffffffffffffffffffffffffffffffffffffff1661049c60015473ffffffffffffffffffffffffffffffffffffffff1690565b73ffffffffffffffffffffffffffffffffffffffff161461051e576040517f08c379a000000000000000000000000000000000000000000000000000000000815260206004820181905260248201527f4f776e61626c653a2063616c6c6572206973206e6f7420746865206f776e657260448201526064015b60405180910390fd5b801561052f5761052c6115fd565b50565b61052c611714565b600260005414156105a4576040517f08c379a000000000000000000000000000000000000000000000000000000000815260206004820152601f60248201527f5265656e7472616e637947756172643a207265656e7472616e742063616c6c006044820152606401610515565b600260005560015474010000000000000000000000000000000000000000900460ff161561062e576040517f08c379a000000000000000000000000000000000000000000000000000000000815260206004820152601060248201527f5061757361626c653a20706175736564000000000000000000000000000000006044820152606401610515565b610637836117e9565b600081116106a1576040517f08c379a000000000000000000000000000000000000000000000000000000000815260206004820152601c60248201527f5072696365206d757374206265206174206c65617374203120776569000000006044820152606401610515565b6106b46106ac6115f3565b8484846118e3565b818373ffffffffffffffffffffffffffffffffffffffff166106d46115f3565b73ffffffffffffffffffffffffffffffffffffffff167f90f30bba5f9027de3b4aa84f979f71aba2fa811aaa29e5b9e15093017c93959a8460405161071b91815260200190565b60405180910390a48273ffffffffffffffffffffffffffffffffffffffff166342842e0e6107476115f3565b6040517fffffffff0000000000000000000000000000000000000000000000000000000060e084901b16815273ffffffffffffffffffffffffffffffffffffffff909116600482015230602482015260448101859052606401600060405180830381600087803b1580156107ba57600080fd5b505af11580156107ce573d6000803e3d6000fd5b505060016000555050505050565b73ffffffffffffffffffffffffffffffffffffffff8084166000908152600360209081526040808320938616835292905290812081908190819061081f906119cc565b8510610887576040517f08c379a000000000000000000000000000000000000000000000000000000000815260206004820152601360248201527f496e646578206f7574206f6620626f756e6473000000000000000000000000006044820152606401610515565b73ffffffffffffffffffffffffffffffffffffffff8088166000908152600360209081526040808320938a168352929052206108c390866119d6565b73ffffffffffffffffffffffffffffffffffffffff878116600090815260026020908152604080832085845282529182902082518084019093528054909316808352600190930154910181905290999098509095509350505050565b6109276115f3565b73ffffffffffffffffffffffffffffffffffffffff1661095c60015473ffffffffffffffffffffffffffffffffffffffff1690565b73ffffffffffffffffffffffffffffffffffffffff16146109d9576040517f08c379a000000000000000000000000000000000000000000000000000000000815260206004820181905260248201527f4f776e61626c653a2063616c6c6572206973206e6f7420746865206f776e65726044820152606401610515565b6109e360006119e2565b565b6109ef8383611a59565b60008111610a59576040517f08c379a000000000000000000000000000000000000000000000000000000000815260206004820152601c60248201527f5072696365206d757374206265206174206c65617374203120776569000000006044820152606401610515565b73ffffffffffffffffffffffffffffffffffffffff8316600081815260026020908152604080832086845290915290206001018290558290610a996115f3565b73ffffffffffffffffffffffffffffffffffffffff167f3c33e65e8698294810b631d476d60b44425303828da0b1f8b635231bfda12be284604051610ae091815260200190565b60405180910390a4505050565b60026000541415610b5a576040517f08c379a000000000000000000000000000000000000000000000000000000000815260206004820152601f60248201527f5265656e7472616e637947756172643a207265656e7472616e742063616c6c006044820152606401610515565b6002600055610b698282611a59565b808273ffffffffffffffffffffffffffffffffffffffff16610b896115f3565b73ffffffffffffffffffffffffffffffffffffffff167f383ef490db59e7a5d04169143c6381628f08309b8da6c8c5b236fad69c666ddd610bc86115f3565b73ffffffffffffffffffffffffffffffffffffffff87811660009081526002602090815260408083208a84528252918290206001015482519490931684528301919091520160405180910390a4610c27610c206115f3565b8383611b15565b8173ffffffffffffffffffffffffffffffffffffffff166342842e0e30610c4c6115f3565b6040517fffffffff0000000000000000000000000000000000000000000000000000000060e085901b16815273ffffffffffffffffffffffffffffffffffffffff92831660048201529116602482015260448101849052606401600060405180830381600087803b158015610cc057600080fd5b505af1158015610cd4573d6000803e3d6000fd5b5050600160005550505050565b73ffffffffffffffffffffffffffffffffffffffff82166000908152600460205260408120819081908190610d15906119cc565b8510610d7d576040517f08c379a000000000000000000000000000000000000000000000000000000000815260206004820152601360248201527f496e646578206f7574206f6620626f756e6473000000000000000000000000006044820152606401610515565b73ffffffffffffffffffffffffffffffffffffffff86166000908152600460205260409020610dac90866119d6565b73ffffffffffffffffffffffffffffffffffffffff878116600090815260026020908152604080832085845282529182902082518084019093528054909316808352600190930154910181905290989097965090945092505050565b60026000541415610e75576040517f08c379a000000000000000000000000000000000000000000000000000000000815260206004820152601f60248201527f5265656e7472616e637947756172643a207265656e7472616e742063616c6c006044820152606401610515565b600260005560015474010000000000000000000000000000000000000000900460ff1615610eff576040517f08c379a000000000000000000000000000000000000000000000000000000000815260206004820152601060248201527f5061757361626c653a20706175736564000000000000000000000000000000006044820152606401610515565b73ffffffffffffffffffffffffffffffffffffffff80851660009081526002602090815260408083208784529091528120549091168180610f3e6115f3565b73ffffffffffffffffffffffffffffffffffffffff168373ffffffffffffffffffffffffffffffffffffffff161415610fd3576040517f08c379a000000000000000000000000000000000000000000000000000000000815260206004820152601260248201527f53656c6c6572206e6f7420616c6c6f77656400000000000000000000000000006044820152606401610515565b73ffffffffffffffffffffffffffffffffffffffff83166110ac5760015473ffffffffffffffffffffffffffffffffffffffff166006546040517fc3e214fc00000000000000000000000000000000000000000000000000000000815273ffffffffffffffffffffffffffffffffffffffff8b8116600483015292955091169063c3e214fc90602401602060405180830381865afa158015611079573d6000803e3d6000fd5b505050506040513d601f19601f8201168201806040525081019061109d9190612108565b91506000905060019350611166565b73ffffffffffffffffffffffffffffffffffffffff88811660008181526002602090815260408083208c8452909152908190206001015460065491517fb88c9148000000000000000000000000000000000000000000000000000000008152600481019390935294509091169063b88c914890602401602060405180830381865afa15801561113f573d6000803e3d6000fd5b505050506040513d601f19601f820116820180604052508101906111639190612108565b90505b868873ffffffffffffffffffffffffffffffffffffffff168473ffffffffffffffffffffffffffffffffffffffff167f383ef490db59e7a5d04169143c6381628f08309b8da6c8c5b236fad69c666ddd6111be6115f3565b6040805173ffffffffffffffffffffffffffffffffffffffff9092168252602082018890520160405180910390a4341561129e576007546040517f25d3783d00000000000000000000000000000000000000000000000000000000815273ffffffffffffffffffffffffffffffffffffffff85811660048301526024820185905260448201849052909116906325d3783d90349060640160206040518083038185885af1158015611273573d6000803e3d6000fd5b50505050506040513d601f19601f820116820180604052508101906112989190612108565b5061137a565b60075473ffffffffffffffffffffffffffffffffffffffff166392cddeb96112c46115f3565b6040517fffffffff0000000000000000000000000000000000000000000000000000000060e084901b16815273ffffffffffffffffffffffffffffffffffffffff918216600482015281871660248201529089166044820152606481018890526084810185905260a4810184905260c4016020604051808303816000875af1158015611354573d6000803e3d6000fd5b505050506040513d601f19601f820116820180604052508101906113789190612108565b505b61138d6113856115f3565b898987611be1565b50506001600055505050505050565b73ffffffffffffffffffffffffffffffffffffffff811660009081526004602052604081206113ca906119cc565b92915050565b73ffffffffffffffffffffffffffffffffffffffff8083166000908152600360209081526040808320938516835292905290812061140d906119cc565b9392505050565b61141c6115f3565b73ffffffffffffffffffffffffffffffffffffffff1661145160015473ffffffffffffffffffffffffffffffffffffffff1690565b73ffffffffffffffffffffffffffffffffffffffff16146114ce576040517f08c379a000000000000000000000000000000000000000000000000000000000815260206004820181905260248201527f4f776e61626c653a2063616c6c6572206973206e6f7420746865206f776e65726044820152606401610515565b73ffffffffffffffffffffffffffffffffffffffff8116611571576040517f08c379a000000000000000000000000000000000000000000000000000000000815260206004820152602660248201527f4f776e61626c653a206e6577206f776e657220697320746865207a65726f206160448201527f64647265737300000000000000000000000000000000000000000000000000006064820152608401610515565b61052c816119e2565b60007f000000000000000000000000000000000000000000000000000000000000000073ffffffffffffffffffffffffffffffffffffffff163314156115e557507fffffffffffffffffffffffffffffffffffffffffffffffffffffffffffffffec36013560601c90565b503390565b905090565b3390565b60006115ea61157a565b60015474010000000000000000000000000000000000000000900460ff1615611682576040517f08c379a000000000000000000000000000000000000000000000000000000000815260206004820152601060248201527f5061757361626c653a20706175736564000000000000000000000000000000006044820152606401610515565b600180547fffffffffffffffffffffff00ffffffffffffffffffffffffffffffffffffffff16740100000000000000000000000000000000000000001790557f62e78cea01bee320cd4e420270b5ea74000d11b0c9f74754ebdbfc544b05a2586116ea6115f3565b60405173ffffffffffffffffffffffffffffffffffffffff909116815260200160405180910390a1565b60015474010000000000000000000000000000000000000000900460ff16611798576040517f08c379a000000000000000000000000000000000000000000000000000000000815260206004820152601460248201527f5061757361626c653a206e6f74207061757365640000000000000000000000006044820152606401610515565b600180547fffffffffffffffffffffff00ffffffffffffffffffffffffffffffffffffffff1690557f5db9ee0a495bf2e6ff9c91a7834c1ba4fdd244a5e8aa4e537bd38aeae4b073aa6116ea6115f3565b6006546040517f8214ff3e00000000000000000000000000000000000000000000000000000000815273ffffffffffffffffffffffffffffffffffffffff838116600483015290911690638214ff3e90602401602060405180830381865afa158015611859573d6000803e3d6000fd5b505050506040513d601f19601f8201168201806040525081019061187d9190612121565b61052c576040517f08c379a000000000000000000000000000000000000000000000000000000000815260206004820152601b60248201527f436f6e7472616374206973206e6f742077686974656c697374656400000000006044820152606401610515565b73ffffffffffffffffffffffffffffffffffffffff808516600090815260036020908152604080832093871683529290522061191f9083611cdc565b5073ffffffffffffffffffffffffffffffffffffffff8316600090815260046020526040902061194f9083611cdc565b5060408051808201825273ffffffffffffffffffffffffffffffffffffffff9586168152602080820193845294861660009081526002865282812094815293909452909120915182547fffffffffffffffffffffffff00000000000000000000000000000000000000001693169290921781559051600190910155565b60006113ca825490565b600061140d8383611ce8565b6001805473ffffffffffffffffffffffffffffffffffffffff8381167fffffffffffffffffffffffff0000000000000000000000000000000000000000831681179093556040519116919082907f8be0079c531659141344cd1fd0a4f28419497f9722a3daafe3b4186f6b6457e090600090a35050565b73ffffffffffffffffffffffffffffffffffffffff808316600090815260026020908152604080832085845290915290205416611a946115f3565b73ffffffffffffffffffffffffffffffffffffffff1614611b11576040517f08c379a000000000000000000000000000000000000000000000000000000000815260206004820152601360248201527f4f6e6c792073656c6c657220616c6c6f776564000000000000000000000000006044820152606401610515565b5050565b73ffffffffffffffffffffffffffffffffffffffff8084166000908152600360209081526040808320938616835292905220611b519082611d12565b5073ffffffffffffffffffffffffffffffffffffffff82166000908152600460205260409020611b819082611d12565b5073ffffffffffffffffffffffffffffffffffffffff909116600090815260026020908152604080832093835292905290812080547fffffffffffffffffffffffff00000000000000000000000000000000000000001681556001015550565b308115611c07575060015473ffffffffffffffffffffffffffffffffffffffff16611c45565b73ffffffffffffffffffffffffffffffffffffffff8085166000908152600260209081526040808320878452909152902054611c4591168585611b15565b6040517f42842e0e00000000000000000000000000000000000000000000000000000000815273ffffffffffffffffffffffffffffffffffffffff82811660048301528681166024830152604482018590528516906342842e0e90606401600060405180830381600087803b158015611cbd57600080fd5b505af1158015611cd1573d6000803e3d6000fd5b505050505050505050565b600061140d8383611d1e565b6000826000018281548110611cff57611cff61213e565b9060005260206000200154905092915050565b600061140d8383611d6d565b6000818152600183016020526040812054611d65575081546001818101845560008481526020808220909301849055845484825282860190935260409020919091556113ca565b5060006113ca565b60008181526001830160205260408120548015611e56576000611d9160018361216d565b8554909150600090611da59060019061216d565b9050818114611e0a576000866000018281548110611dc557611dc561213e565b9060005260206000200154905080876000018481548110611de857611de861213e565b6000918252602080832090910192909255918252600188019052604090208390555b8554869080611e1b57611e1b6121ab565b6001900381819060005260206000200160009055905585600101600086815260200190815260200160002060009055600193505050506113ca565b60009150506113ca565b803573ffffffffffffffffffffffffffffffffffffffff81168114611e8457600080fd5b919050565b7f4e487b7100000000000000000000000000000000000000000000000000000000600052604160045260246000fd5b60008060008060808587031215611ece57600080fd5b611ed785611e60565b9350611ee560208601611e60565b925060408501359150606085013567ffffffffffffffff80821115611f0957600080fd5b818701915087601f830112611f1d57600080fd5b813581811115611f2f57611f2f611e89565b604051601f82017fffffffffffffffffffffffffffffffffffffffffffffffffffffffffffffffe0908116603f01168101908382118183101715611f7557611f75611e89565b816040528281528a6020848701011115611f8e57600080fd5b82602086016020830137600060208483010152809550505050505092959194509250565b801515811461052c57600080fd5b600060208284031215611fd257600080fd5b813561140d81611fb2565b600060208284031215611fef57600080fd5b61140d82611e60565b60008060006060848603121561200d57600080fd5b61201684611e60565b95602085013595506040909401359392505050565b6000806040838503121561203e57600080fd5b61204783611e60565b946020939093013593505050565b60008060006060848603121561206a57600080fd5b61207384611e60565b925061208160208501611e60565b9150604084013590509250925092565b600080600080608085870312156120a757600080fd5b6120b085611e60565b9350602085013592506120c560408601611e60565b9396929550929360600135925050565b600080604083850312156120e857600080fd5b6120f183611e60565b91506120ff60208401611e60565b90509250929050565b60006020828403121561211a57600080fd5b5051919050565b60006020828403121561213357600080fd5b815161140d81611fb2565b7f4e487b7100000000000000000000000000000000000000000000000000000000600052603260045260246000fd5b6000828210156121a6577f4e487b7100000000000000000000000000000000000000000000000000000000600052601160045260246000fd5b500390565b7f4e487b7100000000000000000000000000000000000000000000000000000000600052603160045260246000fdfea2646970667358221220fb138548f9d0a7c0f034284cb5adac5e6c8307ea1d86b931b390d7647568d69464736f6c634300080c0033",
  "linkReferences": {},
  "deployedLinkReferences": {}
}