{
  "_format": "hh-sol-artifact-1",
  "contractName": "SalesService",
  "sourceName": "contracts/services/SalesService.sol",
  "abi": [
    {
      "inputs": [
        {
          "internalType": "address payable",
          "name": "treasuryAddress_",
          "type": "address"
        },
        {
          "internalType": "address",
          "name": "weth_",
          "type": "address"
        },
        {
          "internalType": "address",
          "name": "router_",
          "type": "address"
        }
      ],
      "stateMutability": "nonpayable",
      "type": "constructor"
    },
    {
      "anonymous": false,
      "inputs": [
        {
          "indexed": true,
          "internalType": "address",
          "name": "user",
          "type": "address"
        },
        {
          "indexed": false,
          "internalType": "uint256",
          "name": "funds",
          "type": "uint256"
        }
      ],
      "name": "FundsTransferred",
      "type": "event"
    },
    {
      "anonymous": false,
      "inputs": [
        {
          "indexed": true,
          "internalType": "address",
          "name": "previousOwner",
          "type": "address"
        },
        {
          "indexed": true,
          "internalType": "address",
          "name": "newOwner",
          "type": "address"
        }
      ],
      "name": "OwnershipTransferred",
      "type": "event"
    },
    {
      "stateMutability": "payable",
      "type": "fallback"
    },
    {
      "inputs": [],
      "name": "BASE_CURRENCY",
      "outputs": [
        {
          "internalType": "address",
          "name": "",
          "type": "address"
        }
      ],
      "stateMutability": "view",
      "type": "function"
    },
    {
      "inputs": [],
      "name": "WETH",
      "outputs": [
        {
          "internalType": "address",
          "name": "",
          "type": "address"
        }
      ],
      "stateMutability": "view",
      "type": "function"
    },
    {
      "inputs": [
        {
          "internalType": "address",
          "name": "tokenAddress_",
          "type": "address"
        }
      ],
      "name": "addApprovedToken",
      "outputs": [],
      "stateMutability": "nonpayable",
      "type": "function"
    },
    {
      "inputs": [
        {
          "internalType": "address",
          "name": "marketplaceAddress_",
          "type": "address"
        }
      ],
      "name": "addAuthorizedMarketplace",
      "outputs": [],
      "stateMutability": "nonpayable",
      "type": "function"
    },
    {
      "inputs": [
        {
          "internalType": "address",
          "name": "to_",
          "type": "address"
        },
        {
          "internalType": "uint256",
          "name": "price_",
          "type": "uint256"
        },
        {
          "internalType": "uint256",
          "name": "feePercentage_",
          "type": "uint256"
        }
      ],
      "name": "approvePayment",
      "outputs": [
        {
          "internalType": "uint256",
          "name": "",
          "type": "uint256"
        }
      ],
      "stateMutability": "payable",
      "type": "function"
    },
    {
      "inputs": [
        {
          "internalType": "address",
          "name": "from_",
          "type": "address"
        },
        {
          "internalType": "address",
          "name": "to_",
          "type": "address"
        },
        {
          "internalType": "address",
          "name": "tokenAddress_",
          "type": "address"
        },
        {
          "internalType": "uint256",
          "name": "amountIn_",
          "type": "uint256"
        },
        {
          "internalType": "uint256",
          "name": "price_",
          "type": "uint256"
        },
        {
          "internalType": "uint256",
          "name": "feePercentage_",
          "type": "uint256"
        }
      ],
      "name": "approvePaymentERC20",
      "outputs": [
        {
          "internalType": "uint256",
          "name": "",
          "type": "uint256"
        }
      ],
      "stateMutability": "nonpayable",
      "type": "function"
    },
    {
      "inputs": [],
      "name": "getApprovedTokens",
      "outputs": [
        {
          "internalType": "address[]",
          "name": "",
          "type": "address[]"
        }
      ],
      "stateMutability": "view",
      "type": "function"
    },
    {
      "inputs": [],
      "name": "getAuthorizedMarketplaces",
      "outputs": [
        {
          "internalType": "address[]",
          "name": "",
          "type": "address[]"
        }
      ],
      "stateMutability": "view",
      "type": "function"
    },
    {
      "inputs": [
        {
          "internalType": "address",
          "name": "user_",
          "type": "address"
        }
      ],
      "name": "getPendingRevenue",
      "outputs": [
        {
          "internalType": "uint256",
          "name": "revenue",
          "type": "uint256"
        }
      ],
      "stateMutability": "view",
      "type": "function"
    },
    {
      "inputs": [],
      "name": "owner",
      "outputs": [
        {
          "internalType": "address",
          "name": "",
          "type": "address"
        }
      ],
      "stateMutability": "view",
      "type": "function"
    },
    {
      "inputs": [
        {
          "internalType": "address",
          "name": "tokenAddress_",
          "type": "address"
        }
      ],
      "name": "removeApprovedToken",
      "outputs": [],
      "stateMutability": "nonpayable",
      "type": "function"
    },
    {
      "inputs": [
        {
          "internalType": "address",
          "name": "marketplaceAddress_",
          "type": "address"
        }
      ],
      "name": "removeAuthorizedMarketplace",
      "outputs": [],
      "stateMutability": "nonpayable",
      "type": "function"
    },
    {
      "inputs": [],
      "name": "renounceOwnership",
      "outputs": [],
      "stateMutability": "nonpayable",
      "type": "function"
    },
    {
      "inputs": [],
      "name": "retrievePendingRevenue",
      "outputs": [],
      "stateMutability": "nonpayable",
      "type": "function"
    },
    {
      "inputs": [
        {
          "internalType": "address payable",
          "name": "treasuryAddress_",
          "type": "address"
        }
      ],
      "name": "setTreasuryAddress",
      "outputs": [],
      "stateMutability": "nonpayable",
      "type": "function"
    },
    {
      "inputs": [
        {
          "internalType": "address",
          "name": "newOwner",
          "type": "address"
        }
      ],
      "name": "transferOwnership",
      "outputs": [],
      "stateMutability": "nonpayable",
      "type": "function"
    },
    {
      "inputs": [
        {
          "internalType": "address",
          "name": "to_",
          "type": "address"
        },
        {
          "internalType": "uint256",
          "name": "amount_",
          "type": "uint256"
        },
        {
          "internalType": "uint256",
          "name": "percentage",
          "type": "uint256"
        }
      ],
      "name": "unlockPendingRevenue",
      "outputs": [],
      "stateMutability": "nonpayable",
      "type": "function"
    },
    {
      "stateMutability": "payable",
      "type": "receive"
    }
  ],
  "bytecode": "0x60c06040523480156200001157600080fd5b50604051620028c7380380620028c783398101604081905262000034916200013e565b6200003f33620000d5565b600180556001600160a01b038316620000a95760405162461bcd60e51b815260206004820152602260248201527f74726561737572792061646472657373283029206973206e6f7420616c6c6f77604482015261195960f21b606482015260840160405180910390fd5b600780546001600160a01b0319166001600160a01b0394851617905590821660a0521660805262000192565b600080546001600160a01b038381166001600160a01b0319831681178455604051919092169283917f8be0079c531659141344cd1fd0a4f28419497f9722a3daafe3b4186f6b6457e09190a35050565b6001600160a01b03811681146200013b57600080fd5b50565b6000806000606084860312156200015457600080fd5b8351620001618162000125565b6020850151909350620001748162000125565b6040850151909250620001878162000125565b809150509250925092565b60805160a0516126fa620001cd600039600081816102ca0152610ca2015260008181610d2201528181610fe5015261109f01526126fa6000f3fe6080604052600436106101035760003560e01c8063715018a61161009c578063c6ddf5ee1161006e578063e19f470011610056578063e19f470014610321578063ea144d8d14610336578063f2fde38b1461034b57005b8063c6ddf5ee146102ec578063cd10534b1461030157005b8063715018a6146102375780638da5cb5b1461024c57806392cddeb914610298578063ad5c4648146102b857005b806335a94e5f116100d557806335a94e5f146101b55780635705987a146101d55780636605bfda146101f55780636afc0c5f1461021557005b80630ec30d741461010c5780630fa2f03b1461012c578063220cadbe1461014c57806325d3783d146101a257005b3661010a57005b005b34801561011857600080fd5b5061010a610127366004612300565b61036b565b34801561013857600080fd5b5061010a61014736600461231d565b610411565b34801561015857600080fd5b5061018f610167366004612300565b73ffffffffffffffffffffffffffffffffffffffff1660009081526006602052604090205490565b6040519081526020015b60405180910390f35b61018f6101b036600461231d565b61058e565b3480156101c157600080fd5b5061010a6101d0366004612300565b61079c565b3480156101e157600080fd5b5061010a6101f0366004612300565b610837565b34801561020157600080fd5b5061010a610210366004612300565b6108d3565b34801561022157600080fd5b5061022a610a3e565b60405161019991906123a3565b34801561024357600080fd5b5061010a610a4f565b34801561025857600080fd5b5060005473ffffffffffffffffffffffffffffffffffffffff165b60405173ffffffffffffffffffffffffffffffffffffffff9091168152602001610199565b3480156102a457600080fd5b5061018f6102b33660046123b6565b610adc565b3480156102c457600080fd5b506102737f000000000000000000000000000000000000000000000000000000000000000081565b3480156102f857600080fd5b5061022a611153565b34801561030d57600080fd5b5061010a61031c366004612300565b61115f565b34801561032d57600080fd5b50610273600081565b34801561034257600080fd5b5061010a6111fa565b34801561035757600080fd5b5061010a610366366004612300565b61133f565b60005473ffffffffffffffffffffffffffffffffffffffff1633146103f1576040517f08c379a000000000000000000000000000000000000000000000000000000000815260206004820181905260248201527f4f776e61626c653a2063616c6c6572206973206e6f7420746865206f776e657260448201526064015b60405180910390fd5b6103fc60048261146c565b1561040e5761040c6004826114a0565b505b50565b61041e335b60049061146c565b610484576040517f08c379a000000000000000000000000000000000000000000000000000000000815260206004820152601260248201527f53656e646572206e6f7420616c6c6f776564000000000000000000000000000060448201526064016103e8565b600260015414156104f1576040517f08c379a000000000000000000000000000000000000000000000000000000000815260206004820152601f60248201527f5265656e7472616e637947756172643a207265656e7472616e742063616c6c0060448201526064016103e8565b6002600155600061050283836114c2565b905061050e818461244a565b73ffffffffffffffffffffffffffffffffffffffff851660009081526006602052604081208054909190610543908490612461565b909155505060075473ffffffffffffffffffffffffffffffffffffffff166000908152600660205260408120805483929061057f908490612461565b90915550506001805550505050565b600061059933610416565b6105ff576040517f08c379a000000000000000000000000000000000000000000000000000000000815260206004820152601260248201527f53656e646572206e6f7420616c6c6f776564000000000000000000000000000060448201526064016103e8565b6002600154141561066c576040517f08c379a000000000000000000000000000000000000000000000000000000000815260206004820152601f60248201527f5265656e7472616e637947756172643a207265656e7472616e742063616c6c0060448201526064016103e8565b60026001553483146106da576040517f08c379a000000000000000000000000000000000000000000000000000000000815260206004820152601060248201527f4e6f7420656e6f7567682066756e64730000000000000000000000000000000060448201526064016103e8565b73ffffffffffffffffffffffffffffffffffffffff8416301461078f57600061070384846114c2565b90506000610711828661244a565b73ffffffffffffffffffffffffffffffffffffffff871660009081526006602052604081208054929350839290919061074b908490612461565b909155505060075473ffffffffffffffffffffffffffffffffffffffff1660009081526006602052604081208054849290610787908490612461565b909155505050505b5034600180559392505050565b60005473ffffffffffffffffffffffffffffffffffffffff16331461081d576040517f08c379a000000000000000000000000000000000000000000000000000000000815260206004820181905260248201527f4f776e61626c653a2063616c6c6572206973206e6f7420746865206f776e657260448201526064016103e8565b61082860048261146c565b61040e5761040c600482611501565b60005473ffffffffffffffffffffffffffffffffffffffff1633146108b8576040517f08c379a000000000000000000000000000000000000000000000000000000000815260206004820181905260248201527f4f776e61626c653a2063616c6c6572206973206e6f7420746865206f776e657260448201526064016103e8565b6108c360028261146c565b1561040e5761040c6002826114a0565b60005473ffffffffffffffffffffffffffffffffffffffff163314610954576040517f08c379a000000000000000000000000000000000000000000000000000000000815260206004820181905260248201527f4f776e61626c653a2063616c6c6572206973206e6f7420746865206f776e657260448201526064016103e8565b73ffffffffffffffffffffffffffffffffffffffff81166109f7576040517f08c379a000000000000000000000000000000000000000000000000000000000815260206004820152602260248201527f74726561737572792061646472657373283029206973206e6f7420616c6c6f7760448201527f656400000000000000000000000000000000000000000000000000000000000060648201526084016103e8565b600780547fffffffffffffffffffffffff00000000000000000000000000000000000000001673ffffffffffffffffffffffffffffffffffffffff92909216919091179055565b6060610a4a6002611523565b905090565b60005473ffffffffffffffffffffffffffffffffffffffff163314610ad0576040517f08c379a000000000000000000000000000000000000000000000000000000000815260206004820181905260248201527f4f776e61626c653a2063616c6c6572206973206e6f7420746865206f776e657260448201526064016103e8565b610ada6000611537565b565b6000610ae733610416565b610b4d576040517f08c379a000000000000000000000000000000000000000000000000000000000815260206004820152601260248201527f53656e646572206e6f7420616c6c6f776564000000000000000000000000000060448201526064016103e8565b60026001541415610bba576040517f08c379a000000000000000000000000000000000000000000000000000000000815260206004820152601f60248201527f5265656e7472616e637947756172643a207265656e7472616e742063616c6c0060448201526064016103e8565b60026001819055610bcb908661146c565b610c31576040517f08c379a000000000000000000000000000000000000000000000000000000000815260206004820152601160248201527f546f6b656e206e6f7420616c6c6f77656400000000000000000000000000000060448201526064016103e8565b6040805160028082526060820183526000926020830190803683370190505090508581600081518110610c6657610c666124a8565b602002602001019073ffffffffffffffffffffffffffffffffffffffff16908173ffffffffffffffffffffffffffffffffffffffff16815250507f000000000000000000000000000000000000000000000000000000000000000081600181518110610cd457610cd46124a8565b73ffffffffffffffffffffffffffffffffffffffff92831660209182029290920101526040517fd06ca61f0000000000000000000000000000000000000000000000000000000081526000917f0000000000000000000000000000000000000000000000000000000000000000169063d06ca61f90610d5990899086906004016124d7565b600060405180830381865afa158015610d76573d6000803e3d6000fd5b505050506040513d6000823e601f3d9081017fffffffffffffffffffffffffffffffffffffffffffffffffffffffffffffffe0168201604052610dbc91908101906124f0565b905060008160018451610dcf919061244a565b81518110610ddf57610ddf6124a8565b6020026020010151905080861115610e53576040517f08c379a000000000000000000000000000000000000000000000000000000000815260206004820152601060248201527f4e6f7420656e6f7567682066756e64730000000000000000000000000000000060448201526064016103e8565b73ffffffffffffffffffffffffffffffffffffffff89163014610f08576000610e7c87876114c2565b90506000610e8a828961244a565b73ffffffffffffffffffffffffffffffffffffffff8c16600090815260066020526040812080549293508392909190610ec4908490612461565b909155505060075473ffffffffffffffffffffffffffffffffffffffff1660009081526006602052604081208054849290610f00908490612461565b909155505050505b6040517f23b872dd00000000000000000000000000000000000000000000000000000000815273ffffffffffffffffffffffffffffffffffffffff8b81166004830152306024830152604482018990528916906323b872dd906064016020604051808303816000875af1158015610f83573d6000803e3d6000fd5b505050506040513d601f19601f82011682018060405250810190610fa791906125cc565b506040517f095ea7b300000000000000000000000000000000000000000000000000000000815273ffffffffffffffffffffffffffffffffffffffff7f0000000000000000000000000000000000000000000000000000000000000000811660048301526024820189905289169063095ea7b3906044016020604051808303816000875af115801561103d573d6000803e3d6000fd5b505050506040513d601f19601f8201168201806040525081019061106191906125cc565b506040517f18cbafe500000000000000000000000000000000000000000000000000000000815273ffffffffffffffffffffffffffffffffffffffff7f000000000000000000000000000000000000000000000000000000000000000016906318cbafe5906110dc908a9085908890309042906004016125ee565b6000604051808303816000875af11580156110fb573d6000803e3d6000fd5b505050506040513d6000823e601f3d9081017fffffffffffffffffffffffffffffffffffffffffffffffffffffffffffffffe016820160405261114191908101906124f0565b50600180559998505050505050505050565b6060610a4a6004611523565b60005473ffffffffffffffffffffffffffffffffffffffff1633146111e0576040517f08c379a000000000000000000000000000000000000000000000000000000000815260206004820181905260248201527f4f776e61626c653a2063616c6c6572206973206e6f7420746865206f776e657260448201526064016103e8565b6111eb60028261146c565b61040e5761040c600282611501565b60026001541415611267576040517f08c379a000000000000000000000000000000000000000000000000000000000815260206004820152601f60248201527f5265656e7472616e637947756172643a207265656e7472616e742063616c6c0060448201526064016103e8565b6002600155336000908152600660205260409020546112e2576040517f08c379a000000000000000000000000000000000000000000000000000000000815260206004820152601260248201527f4e6f2070656e64696e6720726576656e7565000000000000000000000000000060448201526064016103e8565b3360008181526006602090815260408083208054939055805183815290519293927f8c9a4f13b67cb64d7c6aa1ae0c9bf07694af521a28b93e7060020810ab4bc59f929181900390910190a261133833826115ac565b5060018055565b60005473ffffffffffffffffffffffffffffffffffffffff1633146113c0576040517f08c379a000000000000000000000000000000000000000000000000000000000815260206004820181905260248201527f4f776e61626c653a2063616c6c6572206973206e6f7420746865206f776e657260448201526064016103e8565b73ffffffffffffffffffffffffffffffffffffffff8116611463576040517f08c379a000000000000000000000000000000000000000000000000000000000815260206004820152602660248201527f4f776e61626c653a206e6577206f776e657220697320746865207a65726f206160448201527f646472657373000000000000000000000000000000000000000000000000000060648201526084016103e8565b61040e81611537565b73ffffffffffffffffffffffffffffffffffffffff8116600090815260018301602052604081205415155b90505b92915050565b60006114978373ffffffffffffffffffffffffffffffffffffffff841661170b565b6000806114f96114f46114e56114d7866117fe565b6114e0886117fe565b611869565b6114ef60646117fe565b611cad565b6120c5565b949350505050565b60006114978373ffffffffffffffffffffffffffffffffffffffff8416612183565b60606000611530836121d2565b9392505050565b6000805473ffffffffffffffffffffffffffffffffffffffff8381167fffffffffffffffffffffffff0000000000000000000000000000000000000000831681178455604051919092169283917f8be0079c531659141344cd1fd0a4f28419497f9722a3daafe3b4186f6b6457e09190a35050565b80471015611616576040517f08c379a000000000000000000000000000000000000000000000000000000000815260206004820152601d60248201527f416464726573733a20696e73756666696369656e742062616c616e636500000060448201526064016103e8565b60008273ffffffffffffffffffffffffffffffffffffffff168260405160006040518083038185875af1925050503d8060008114611670576040519150601f19603f3d011682016040523d82523d6000602084013e611675565b606091505b5050905080611706576040517f08c379a000000000000000000000000000000000000000000000000000000000815260206004820152603a60248201527f416464726573733a20756e61626c6520746f2073656e642076616c75652c207260448201527f6563697069656e74206d6179206861766520726576657274656400000000000060648201526084016103e8565b505050565b600081815260018301602052604081205480156117f457600061172f60018361244a565b85549091506000906117439060019061244a565b90508181146117a8576000866000018281548110611763576117636124a8565b9060005260206000200154905080876000018481548110611786576117866124a8565b6000918252602080832090910192909255918252600188019052604090208390555b85548690806117b9576117b9612637565b60019003818190600052602060002001600090559055856001016000868152602001908152602001600020600090556001935050505061149a565b600091505061149a565b60008161180d57506000919050565b8160006118198261222e565b90506070811015611832578060700382901b9150611845565b6070811115611845576070810382901c91505b613fff0160701b6dffffffffffffffffffffffffffff919091161760801b92915050565b6000617fff60f084811c8216919084901c8116908214156119e95780617fff141561196a577fffffffffffffffffffffffffffffffff0000000000000000000000000000000085811690851614156118e8575050507f80000000000000000000000000000000000000000000000000000000000000008116821861149a565b7f80000000000000000000000000000000000000000000000000000000000000007fffffffffffffffffffffffffffffffff0000000000000000000000000000000086861816141561193f5750505081811761149a565b507f7fff800000000000000000000000000000000000000000000000000000000000915061149a9050565b7f7fffffffffffffffffffffffffffffff0000000000000000000000000000000084166119bc57507f7fff800000000000000000000000000000000000000000000000000000000000915061149a9050565b5050507f80000000000000000000000000000000000000000000000000000000000000008116821861149a565b80617fff1415611a72577f7fffffffffffffffffffffffffffffff000000000000000000000000000000008516611a4557507f7fff800000000000000000000000000000000000000000000000000000000000915061149a9050565b5050507f80000000000000000000000000000000000000000000000000000000000000008216811861149a565b6dffffffffffffffffffffffffffff608086901c1682611a955760019250611aa7565b6e010000000000000000000000000000175b6dffffffffffffffffffffffffffff608086901c1682611aca5760019250611adc565b6e010000000000000000000000000000175b9081029081611b42577f800000000000000000000000000000000000000000000000000000000000000087871816611b15576000611b37565b7f80000000000000000000000000000000000000000000000000000000000000005b94505050505061149a565b9282019260007c0200000000000000000000000000000000000000000000000000000000831015611ba7577c0100000000000000000000000000000000000000000000000000000000831015611ba057611b9b8361222e565b611baa565b60e0611baa565b60e15b90506140708186011015611bc5576000945060009250611c69565b6140e08186011015611c0857614070851015611bea57846140700383901c9250611bff565b614070851115611bff57614070850383901b92505b60009450611c69565b61c0dd8186011115611c2257617fff945060009250611c69565b6070811115611c39576070810383901c9250611c4c565b6070811015611c4c578060700383901b92505b6dffffffffffffffffffffffffffff831692506140df8186010394505b82607086901b888a186f8000000000000000000000000000000060801b1660801c6fffffffffffffffffffffffffffffffff16171760801b9550505050505061149a565b6000617fff60f084811c8216919084901c811690821415611cfd5780617fff14156119bc57507f7fff800000000000000000000000000000000000000000000000000000000000915061149a9050565b80617fff1415611d85577dffffffffffffffffffffffffffff00000000000000000000000000000000841615611d5857507f7fff800000000000000000000000000000000000000000000000000000000000915061149a9050565b5050508082187f80000000000000000000000000000000000000000000000000000000000000001661149a565b7f7fffffffffffffffffffffffffffffff000000000000000000000000000000008416611e4d577f7fffffffffffffffffffffffffffffff000000000000000000000000000000008516611dfe57507f7fff800000000000000000000000000000000000000000000000000000000000915061149a9050565b5050508082187f8000000000000000000000000000000000000000000000000000000000000000167f7fff0000000000000000000000000000000000000000000000000000000000001761149a565b6dffffffffffffffffffffffffffff608085901c1681611e705760019150611e82565b6e010000000000000000000000000000175b6dffffffffffffffffffffffffffff608087901c1683611ee6578015611ee1576000611ead8261222e565b6001955060e2039384017fffffffffffffffffffffffffffffffffffffffffffffffffffffffffffffff8e01939190911b90505b611efb565b6e0100000000000000000000000000001760721b5b818181611f0a57611f0a612666565b04905080611f42577f800000000000000000000000000000000000000000000000000000000000000087871816611b15576000611b37565b6d1000000000000000000000000000811015611f6057611f60612695565b60006e080000000000000000000000000000821015611fc0576e040000000000000000000000000000821015611fb5576e020000000000000000000000000000821015611fae576070611fb8565b6071611fb8565b60725b60ff16611fc9565b611fc98261222e565b905083614071018186011115611fe757617fff945060009150612081565b83818601613ffc011015612002576000945060009150612081565b83818601613f8c01101561204f578385613ffc01111561202d578385613ffc010382901b9150612046565b8385613ffc01101561204657613ffc8585030382901c91505b60009450612081565b6070811115612062576070810382901c91505b6dffffffffffffffffffffffffffff8216915083818601613f8d010394505b81607086901b888a186f8000000000000000000000000000000060801b1660801c6fffffffffffffffffffffffffffffffff16171760801b9550505050505061149a565b6000617fff60f083901c16613fff8110156120e35750600092915050565b6f80000000000000000000000000000000608084901c1061210357600080fd5b6140fe81111561211257600080fd5b6e0100000000000000000000000000006dffffffffffffffffffffffffffff608085901c161761406f82101561214e5761406f8290031c611530565b61406f821115611530577fffffffffffffffffffffffffffffffffffffffffffffffffffffffffffffbf9182011b9392505050565b60008181526001830160205260408120546121ca5750815460018181018455600084815260208082209093018490558454848252828601909352604090209190915561149a565b50600061149a565b60608160000180548060200260200160405190810160405280929190818152602001828054801561222257602002820191906000526020600020905b81548152602001906001019080831161220e575b50505050509050919050565b600080821161223c57600080fd5b6000700100000000000000000000000000000000831061225e57608092831c92015b68010000000000000000831061227657604092831c92015b640100000000831061228a57602092831c92015b62010000831061229c57601092831c92015b61010083106122ad57600892831c92015b601083106122bd57600492831c92015b600483106122cd57600292831c92015b6002831061149a5760010192915050565b73ffffffffffffffffffffffffffffffffffffffff8116811461040e57600080fd5b60006020828403121561231257600080fd5b8135611530816122de565b60008060006060848603121561233257600080fd5b833561233d816122de565b95602085013595506040909401359392505050565b600081518084526020808501945080840160005b8381101561239857815173ffffffffffffffffffffffffffffffffffffffff1687529582019590820190600101612366565b509495945050505050565b6020815260006114976020830184612352565b60008060008060008060c087890312156123cf57600080fd5b86356123da816122de565b955060208701356123ea816122de565b945060408701356123fa816122de565b959894975094956060810135955060808101359460a0909101359350915050565b7f4e487b7100000000000000000000000000000000000000000000000000000000600052601160045260246000fd5b60008282101561245c5761245c61241b565b500390565b600082198211156124745761247461241b565b500190565b7f4e487b7100000000000000000000000000000000000000000000000000000000600052604160045260246000fd5b7f4e487b7100000000000000000000000000000000000000000000000000000000600052603260045260246000fd5b8281526040602082015260006114f96040830184612352565b6000602080838503121561250357600080fd5b825167ffffffffffffffff8082111561251b57600080fd5b818501915085601f83011261252f57600080fd5b81518181111561254157612541612479565b8060051b6040517fffffffffffffffffffffffffffffffffffffffffffffffffffffffffffffffe0603f8301168101818110858211171561258457612584612479565b6040529182528482019250838101850191888311156125a257600080fd5b938501935b828510156125c0578451845293850193928501926125a7565b98975050505050505050565b6000602082840312156125de57600080fd5b8151801515811461153057600080fd5b85815284602082015260a06040820152600061260d60a0830186612352565b73ffffffffffffffffffffffffffffffffffffffff94909416606083015250608001529392505050565b7f4e487b7100000000000000000000000000000000000000000000000000000000600052603160045260246000fd5b7f4e487b7100000000000000000000000000000000000000000000000000000000600052601260045260246000fd5b7f4e487b7100000000000000000000000000000000000000000000000000000000600052600160045260246000fdfea26469706673582212204c52890f190ca3c2e8c5fe4dbfe0927a0039aa3d0d24c209f66ea0bc9ff19de664736f6c634300080c0033",
  "linkReferences": {},
  "deployedLinkReferences": {}
}